{
  "contractName": "CSC",
  "abi": [
    {
      "constant": true,
      "inputs": [],
      "name": "geohash",
      "outputs": [
        {
          "name": "",
          "type": "bytes8"
        }
      ],
      "payable": false,
      "stateMutability": "view",
      "type": "function"
    },
    {
      "constant": false,
      "inputs": [
        {
          "name": "csrAddress",
          "type": "address"
        }
      ],
      "name": "register",
      "outputs": [],
      "payable": false,
      "stateMutability": "nonpayable",
      "type": "function"
    },
    {
      "constant": true,
      "inputs": [],
      "name": "csc",
      "outputs": [
        {
          "name": "",
          "type": "bytes12"
        }
      ],
      "payable": false,
      "stateMutability": "view",
      "type": "function"
    },
    {
      "inputs": [
        {
          "name": "_geohash",
          "type": "bytes8"
        }
      ],
      "payable": false,
      "stateMutability": "nonpayable",
      "type": "constructor"
    }
  ],
  "bytecode": "0x6060604052341561000f57600080fd5b6040516020806104cd83398101604052808051906020019091905050806000806101000a81548167ffffffffffffffff02191690837801000000000000000000000000000000000000000000000000900402179055506100a86000809054906101000a9004780100000000000000000000000000000000000000000000000002306100e864010000000002610278176401000000009004565b600060086101000a8154816bffffffffffffffffffffffff0219169083740100000000000000000000000000000000000000009004021790555050610181565b60008282604051808377ffffffffffffffffffffffffffffffffffffffffffffffff191677ffffffffffffffffffffffffffffffffffffffffffffffff191681526008018273ffffffffffffffffffffffffffffffffffffffff1673ffffffffffffffffffffffffffffffffffffffff166c01000000000000000000000000028152601401925050506040518091039020905092915050565b61033d806101906000396000f300606060405260043610610057576000357c0100000000000000000000000000000000000000000000000000000000900463ffffffff16806308e44f881461005c5780634420e486146100bb578063d55c3ca3146100f4575b600080fd5b341561006757600080fd5b61006f61014b565b604051808277ffffffffffffffffffffffffffffffffffffffffffffffff191677ffffffffffffffffffffffffffffffffffffffffffffffff1916815260200191505060405180910390f35b34156100c657600080fd5b6100f2600480803573ffffffffffffffffffffffffffffffffffffffff16906020019091905050610175565b005b34156100ff57600080fd5b610107610251565b604051808273ffffffffffffffffffffffffffffffffffffffff191673ffffffffffffffffffffffffffffffffffffffff1916815260200191505060405180910390f35b6000809054906101000a900478010000000000000000000000000000000000000000000000000281565b60008190508073ffffffffffffffffffffffffffffffffffffffff1663c5f310c0600060089054906101000a900474010000000000000000000000000000000000000000026040518263ffffffff167c0100000000000000000000000000000000000000000000000000000000028152600401808273ffffffffffffffffffffffffffffffffffffffff191673ffffffffffffffffffffffffffffffffffffffff19168152602001915050600060405180830381600087803b151561023957600080fd5b6102c65a03f1151561024a57600080fd5b5050505050565b600060089054906101000a9004740100000000000000000000000000000000000000000281565b60008282604051808377ffffffffffffffffffffffffffffffffffffffffffffffff191677ffffffffffffffffffffffffffffffffffffffffffffffff191681526008018273ffffffffffffffffffffffffffffffffffffffff1673ffffffffffffffffffffffffffffffffffffffff166c010000000000000000000000000281526014019250505060405180910390209050929150505600a165627a7a72305820011935d37a27535afa60349e4100a20ee498bc30110a7695538b467607941cb20029",
  "source": "pragma solidity ^0.4.13;\n\nimport \"./CSR.sol\";\n\n/*\n\n  CSC is an abstract class for anything that inherits a spatial coordinate, i.e.\n  a geohash. It has the ability to register its location in any Crypto Spatial\n  Registery (CSR).\n\n*/\n\ncontract CSC {\n\n    bytes8 public geohash;\n    bytes12 public csc;\n\n    function CSC(bytes8 _geohash) public {\n      geohash = _geohash;\n      csc = computeCSC(geohash, address(this));\n    }\n\n    function register(address csrAddress) public {\n      CSR csr = CSR(csrAddress);\n      csr.register(csc);\n    }\n\n    function computeCSC(bytes8 geohash_arg, address addr) internal pure returns(bytes12) {\n      return bytes12(keccak256(geohash_arg, addr));\n    }\n}\n",
  "sourcePath": "/Users/martyall/code/foam/foam.contracts.deux/contracts/CSC.sol",
  "compiler": {
    "name": "solc",
    "version": "0.4.18+commit.9cf6e910.Emscripten.clang"
  },
  "schemaVersion": "1.0.1",
  "updatedAt": "2018-03-21T16:07:29.057Z"
}