{
  "contractName": "CSC",
  "abi": [
    {
      "constant": true,
      "inputs": [],
      "name": "geohash",
      "outputs": [
        {
          "name": "",
          "type": "bytes8"
        }
      ],
      "payable": false,
      "stateMutability": "view",
      "type": "function"
    },
    {
      "constant": true,
      "inputs": [],
      "name": "csc",
      "outputs": [
        {
          "name": "",
          "type": "bytes12"
        }
      ],
      "payable": false,
      "stateMutability": "view",
      "type": "function"
    },
    {
      "inputs": [
        {
          "name": "_geohash",
          "type": "bytes8"
        }
      ],
      "payable": false,
      "stateMutability": "nonpayable",
      "type": "constructor"
    }
  ],
  "bytecode": "0x6060604052341561000f57600080fd5b60405160208061035183398101604052808051906020019091905050806000806101000a81548167ffffffffffffffff021916908378010000000000000000000000000000000000000000000000009004021790555073__SpatialUtils__________________________63d538a8c26000809054906101000a9004780100000000000000000000000000000000000000000000000002306000604051602001526040518363ffffffff167c0100000000000000000000000000000000000000000000000000000000028152600401808377ffffffffffffffffffffffffffffffffffffffffffffffff191677ffffffffffffffffffffffffffffffffffffffffffffffff191681526020018273ffffffffffffffffffffffffffffffffffffffff1673ffffffffffffffffffffffffffffffffffffffff1681526020019250505060206040518083038186803b151561016857600080fd5b6102c65a03f4151561017957600080fd5b50505060405180519050600060086101000a8154816bffffffffffffffffffffffff0219169083740100000000000000000000000000000000000000009004021790555050610184806101cd6000396000f30060606040526004361061004c576000357c0100000000000000000000000000000000000000000000000000000000900463ffffffff16806308e44f8814610051578063d55c3ca3146100b0575b600080fd5b341561005c57600080fd5b610064610107565b604051808277ffffffffffffffffffffffffffffffffffffffffffffffff191677ffffffffffffffffffffffffffffffffffffffffffffffff1916815260200191505060405180910390f35b34156100bb57600080fd5b6100c3610131565b604051808273ffffffffffffffffffffffffffffffffffffffff191673ffffffffffffffffffffffffffffffffffffffff1916815260200191505060405180910390f35b6000809054906101000a900478010000000000000000000000000000000000000000000000000281565b600060089054906101000a90047401000000000000000000000000000000000000000002815600a165627a7a72305820508c7743f8422c5c234cf73841fa2e9afd859b676957ac1dd3e0214ce50a679a0029",
  "source": "pragma solidity ^0.4.13;\n\nimport \"./SpatialUtils.sol\";\n\n/*\n\n  CSC is an abstract class for anything that inherits a spatial coordinate, i.e.\n  a geohash. It has the ability to register its location in any Crypto Spatial\n  Registery (CSR).\n\n*/\n\ncontract CSC {\n\n    bytes8 public geohash;\n    bytes12 public csc;\n\n    function CSC(bytes8 _geohash) public {\n      geohash = _geohash;\n      csc = SpatialUtils.computeCSC(geohash, address(this));\n    }\n\n}",
  "sourcePath": "/Users/kejace/devel/chanterelle/contracts/CSC.sol",
  "compiler": {
    "name": "solc",
    "version": "0.4.19+commit.c4cbbb05.Emscripten.clang"
  },
  "schemaVersion": "1.0.1",
  "updatedAt": "2018-03-21T22:06:29.294Z"
}