{
  "contractName": "FoamCSR",
  "abi": [
    {
      "constant": true,
      "inputs": [
        {
          "name": "",
          "type": "bytes12"
        }
      ],
      "name": "registry",
      "outputs": [
        {
          "name": "",
          "type": "address"
        }
      ],
      "payable": false,
      "stateMutability": "view",
      "type": "function"
    },
    {
      "constant": false,
      "inputs": [
        {
          "name": "csc",
          "type": "bytes12"
        }
      ],
      "name": "register",
      "outputs": [],
      "payable": false,
      "stateMutability": "nonpayable",
      "type": "function"
    },
    {
      "anonymous": false,
      "inputs": [
        {
          "indexed": false,
          "name": "csc",
          "type": "bytes12"
        },
        {
          "indexed": false,
          "name": "addr",
          "type": "address"
        },
        {
          "indexed": false,
          "name": "geohash",
          "type": "bytes8"
        }
      ],
      "name": "RegisterCSC",
      "type": "event"
    }
  ],
  "bytecode": "0x6060604052341561000f57600080fd5b6105818061001e6000396000f30060606040526004361061004c576000357c0100000000000000000000000000000000000000000000000000000000900463ffffffff168063b5b134a014610051578063c5f310c0146100cb575b600080fd5b341561005c57600080fd5b610089600480803573ffffffffffffffffffffffffffffffffffffffff1916906020019091905050610105565b604051808273ffffffffffffffffffffffffffffffffffffffff1673ffffffffffffffffffffffffffffffffffffffff16815260200191505060405180910390f35b34156100d657600080fd5b610103600480803573ffffffffffffffffffffffffffffffffffffffff1916906020019091905050610138565b005b60006020528060005260406000206000915054906101000a900473ffffffffffffffffffffffffffffffffffffffff1681565b6000806000808473ffffffffffffffffffffffffffffffffffffffff191673ffffffffffffffffffffffffffffffffffffffff1916815260200190815260200160002060009054906101000a900473ffffffffffffffffffffffffffffffffffffffff1673ffffffffffffffffffffffffffffffffffffffff161415610551573390508173ffffffffffffffffffffffffffffffffffffffff191673__SpatialUtils__________________________63d538a8c28373ffffffffffffffffffffffffffffffffffffffff166308e44f886000604051602001526040518163ffffffff167c0100000000000000000000000000000000000000000000000000000000028152600401602060405180830381600087803b151561025957600080fd5b6102c65a03f1151561026a57600080fd5b50505060405180519050336000604051602001526040518363ffffffff167c0100000000000000000000000000000000000000000000000000000000028152600401808377ffffffffffffffffffffffffffffffffffffffffffffffff191677ffffffffffffffffffffffffffffffffffffffffffffffff191681526020018273ffffffffffffffffffffffffffffffffffffffff1673ffffffffffffffffffffffffffffffffffffffff1681526020019250505060206040518083038186803b151561033657600080fd5b6102c65a03f4151561034757600080fd5b5050506040518051905073ffffffffffffffffffffffffffffffffffffffff191614151561037457600080fd5b336000808473ffffffffffffffffffffffffffffffffffffffff191673ffffffffffffffffffffffffffffffffffffffff1916815260200190815260200160002060006101000a81548173ffffffffffffffffffffffffffffffffffffffff021916908373ffffffffffffffffffffffffffffffffffffffff1602179055507fb3ffe8830db156e38c9032a484e2a9824af8c3a24dfd40373831397d9c889d3382338373ffffffffffffffffffffffffffffffffffffffff166308e44f886000604051602001526040518163ffffffff167c0100000000000000000000000000000000000000000000000000000000028152600401602060405180830381600087803b151561048257600080fd5b6102c65a03f1151561049357600080fd5b50505060405180519050604051808473ffffffffffffffffffffffffffffffffffffffff191673ffffffffffffffffffffffffffffffffffffffff191681526020018373ffffffffffffffffffffffffffffffffffffffff1673ffffffffffffffffffffffffffffffffffffffff1681526020018277ffffffffffffffffffffffffffffffffffffffffffffffff191677ffffffffffffffffffffffffffffffffffffffffffffffff19168152602001935050505060405180910390a15b50505600a165627a7a72305820d3b45e8f4d2bcefb958cff847d356c213752eeabcc24ad0120e4ecc0f01a74ef0029",
  "source": "pragma solidity ^0.4.13;\n\nimport \"./CSR.sol\";\nimport \"./CSC.sol\";\nimport \"./SpatialUtils.sol\";\n\ncontract FoamCSR {\n  mapping(bytes12 => address) public registry;\n\n  function register(bytes12 csc) public {\n    if (registry[csc] == 0) {\n      CSC caller = CSC(msg.sender);\n      require(SpatialUtils.computeCSC(caller.geohash(), msg.sender) == csc);\n\n      registry[csc] = msg.sender;\n      RegisterCSC(csc, msg.sender, caller.geohash());\n    }\n  }\n\n  event RegisterCSC(bytes12 csc, address addr, bytes8 geohash);\n}",
  "sourcePath": "/Users/martyall/code/foam/foam.contracts.deux/contracts/FoamCSR.sol",
  "compiler": {
    "name": "solc",
    "version": "0.4.18+commit.9cf6e910.Emscripten.clang"
  },
  "schemaVersion": "1.0.1",
  "updatedAt": "2018-03-21T22:23:24.381Z"
}