{
  "contractName": "ParkingAnchor",
  "abi": [
    {
      "constant": true,
      "inputs": [],
      "name": "geohash",
      "outputs": [
        {
          "name": "",
          "type": "bytes8"
        }
      ],
      "payable": false,
      "stateMutability": "view",
      "type": "function"
    },
    {
      "constant": false,
      "inputs": [
        {
          "name": "csrAddress",
          "type": "address"
        }
      ],
      "name": "register",
      "outputs": [],
      "payable": false,
      "stateMutability": "nonpayable",
      "type": "function"
    },
    {
      "constant": true,
      "inputs": [],
      "name": "anchorId",
      "outputs": [
        {
          "name": "",
          "type": "bytes32"
        }
      ],
      "payable": false,
      "stateMutability": "view",
      "type": "function"
    },
    {
      "constant": true,
      "inputs": [],
      "name": "owner",
      "outputs": [
        {
          "name": "",
          "type": "address"
        }
      ],
      "payable": false,
      "stateMutability": "view",
      "type": "function"
    },
    {
      "constant": false,
      "inputs": [],
      "name": "acceptPayment",
      "outputs": [
        {
          "name": "",
          "type": "bool"
        }
      ],
      "payable": true,
      "stateMutability": "payable",
      "type": "function"
    },
    {
      "constant": true,
      "inputs": [],
      "name": "anchorAuthority",
      "outputs": [
        {
          "name": "",
          "type": "address"
        }
      ],
      "payable": false,
      "stateMutability": "view",
      "type": "function"
    },
    {
      "constant": true,
      "inputs": [],
      "name": "csc",
      "outputs": [
        {
          "name": "",
          "type": "bytes12"
        }
      ],
      "payable": false,
      "stateMutability": "view",
      "type": "function"
    },
    {
      "constant": false,
      "inputs": [
        {
          "name": "newOwner",
          "type": "address"
        }
      ],
      "name": "transferOwnership",
      "outputs": [],
      "payable": false,
      "stateMutability": "nonpayable",
      "type": "function"
    },
    {
      "inputs": [
        {
          "name": "_geohash",
          "type": "bytes8"
        },
        {
          "name": "_anchorId",
          "type": "bytes32"
        }
      ],
      "payable": false,
      "stateMutability": "nonpayable",
      "type": "constructor"
    },
    {
      "anonymous": false,
      "inputs": [
        {
          "indexed": false,
          "name": "anchor",
          "type": "address"
        },
        {
          "indexed": false,
          "name": "user",
          "type": "address"
        }
      ],
      "name": "PaymentAccepted",
      "type": "event"
    },
    {
      "anonymous": false,
      "inputs": [
        {
          "indexed": true,
          "name": "previousOwner",
          "type": "address"
        },
        {
          "indexed": true,
          "name": "newOwner",
          "type": "address"
        }
      ],
      "name": "OwnershipTransferred",
      "type": "event"
    }
  ],
  "bytecode": "0x6060604052341561000f57600080fd5b604051604080610bf18339810160405280805190602001909190805190602001909190505081336000806101000a81548173ffffffffffffffffffffffffffffffffffffffff021916908373ffffffffffffffffffffffffffffffffffffffff16021790555080600060146101000a81548167ffffffffffffffff021916908378010000000000000000000000000000000000000000000000009004021790555073__SpatialUtils__________________________63d538a8c2600060149054906101000a9004780100000000000000000000000000000000000000000000000002306000604051602001526040518363ffffffff167c0100000000000000000000000000000000000000000000000000000000028152600401808377ffffffffffffffffffffffffffffffffffffffffffffffff191677ffffffffffffffffffffffffffffffffffffffffffffffff191681526020018273ffffffffffffffffffffffffffffffffffffffff1673ffffffffffffffffffffffffffffffffffffffff1681526020019250505060206040518083038186803b15156101b457600080fd5b6102c65a03f415156101c557600080fd5b50505060405180519050600160006101000a8154816bffffffffffffffffffffffff0219169083740100000000000000000000000000000000000000009004021790555050806002816000191690555033600360006101000a81548173ffffffffffffffffffffffffffffffffffffffff021916908373ffffffffffffffffffffffffffffffffffffffff160217905550505061098a806102676000396000f30060606040526004361061008e576000357c0100000000000000000000000000000000000000000000000000000000900463ffffffff16806308e44f88146100935780634420e486146100f25780635b59619c1461012b5780638da5cb5b1461015c578063ae0aba8c146101b1578063bfa6e028146101d3578063d55c3ca314610228578063f2fde38b1461027f575b600080fd5b341561009e57600080fd5b6100a66102b8565b604051808277ffffffffffffffffffffffffffffffffffffffffffffffff191677ffffffffffffffffffffffffffffffffffffffffffffffff1916815260200191505060405180910390f35b34156100fd57600080fd5b610129600480803573ffffffffffffffffffffffffffffffffffffffff169060200190919050506102e3565b005b341561013657600080fd5b61013e6103bf565b60405180826000191660001916815260200191505060405180910390f35b341561016757600080fd5b61016f6103c5565b604051808273ffffffffffffffffffffffffffffffffffffffff1673ffffffffffffffffffffffffffffffffffffffff16815260200191505060405180910390f35b6101b96103ea565b604051808215151515815260200191505060405180910390f35b34156101de57600080fd5b6101e66107bc565b604051808273ffffffffffffffffffffffffffffffffffffffff1673ffffffffffffffffffffffffffffffffffffffff16815260200191505060405180910390f35b341561023357600080fd5b61023b6107e2565b604051808273ffffffffffffffffffffffffffffffffffffffff191673ffffffffffffffffffffffffffffffffffffffff1916815260200191505060405180910390f35b341561028a57600080fd5b6102b6600480803573ffffffffffffffffffffffffffffffffffffffff16906020019091905050610809565b005b600060149054906101000a900478010000000000000000000000000000000000000000000000000281565b60008190508073ffffffffffffffffffffffffffffffffffffffff1663c5f310c0600160009054906101000a900474010000000000000000000000000000000000000000026040518263ffffffff167c0100000000000000000000000000000000000000000000000000000000028152600401808273ffffffffffffffffffffffffffffffffffffffff191673ffffffffffffffffffffffffffffffffffffffff19168152602001915050600060405180830381600087803b15156103a757600080fd5b6102c65a03f115156103b857600080fd5b5050505050565b60025481565b6000809054906101000a900473ffffffffffffffffffffffffffffffffffffffff1681565b60008060008060149054906101000a90047801000000000000000000000000000000000000000000000000029150600360009054906101000a900473ffffffffffffffffffffffffffffffffffffffff1673ffffffffffffffffffffffffffffffffffffffff166308ae4b0c336000604051602001526040518263ffffffff167c0100000000000000000000000000000000000000000000000000000000028152600401808273ffffffffffffffffffffffffffffffffffffffff1673ffffffffffffffffffffffffffffffffffffffff168152602001915050602060405180830381600087803b15156104dd57600080fd5b6102c65a03f115156104ee57600080fd5b50505060405180519050905060003411151561050957600080fd5b8073ffffffffffffffffffffffffffffffffffffffff16637dcf8dea836000604051602001526040518263ffffffff167c010000000000000000000000000000000000000000000000000000000002815260040180827bffffffffffffffffffffffffffffffffffffffffffffffffffffffff19167bffffffffffffffffffffffffffffffffffffffffffffffffffffffff19168152602001915050602060405180830381600087803b15156105be57600080fd5b6102c65a03f115156105cf57600080fd5b50505060405180519050801561069657503073ffffffffffffffffffffffffffffffffffffffff168173ffffffffffffffffffffffffffffffffffffffff1663b66fd5cc6000604051602001526040518163ffffffff167c0100000000000000000000000000000000000000000000000000000000028152600401602060405180830381600087803b151561066357600080fd5b6102c65a03f1151561067457600080fd5b5050506040518051905073ffffffffffffffffffffffffffffffffffffffff16145b156107b2577fe508aabf86caa3d4a6d688daaba1557710255b898343f7f8b71765d80da25a803082604051808373ffffffffffffffffffffffffffffffffffffffff1673ffffffffffffffffffffffffffffffffffffffff1681526020018273ffffffffffffffffffffffffffffffffffffffff1673ffffffffffffffffffffffffffffffffffffffff1681526020019250505060405180910390a18073ffffffffffffffffffffffffffffffffffffffff1663871ea4526040518163ffffffff167c0100000000000000000000000000000000000000000000000000000000028152600401600060405180830381600087803b151561079557600080fd5b6102c65a03f115156107a657600080fd5b505050600192506107b7565b600080fd5b505090565b600360009054906101000a900473ffffffffffffffffffffffffffffffffffffffff1681565b600160009054906101000a9004740100000000000000000000000000000000000000000281565b6000809054906101000a900473ffffffffffffffffffffffffffffffffffffffff1673ffffffffffffffffffffffffffffffffffffffff163373ffffffffffffffffffffffffffffffffffffffff1614151561086457600080fd5b600073ffffffffffffffffffffffffffffffffffffffff168173ffffffffffffffffffffffffffffffffffffffff16141515156108a057600080fd5b8073ffffffffffffffffffffffffffffffffffffffff166000809054906101000a900473ffffffffffffffffffffffffffffffffffffffff1673ffffffffffffffffffffffffffffffffffffffff167f8be0079c531659141344cd1fd0a4f28419497f9722a3daafe3b4186f6b6457e060405160405180910390a3806000806101000a81548173ffffffffffffffffffffffffffffffffffffffff021916908373ffffffffffffffffffffffffffffffffffffffff160217905550505600a165627a7a72305820b148a231785134c4ceaf4ea346fbad5aa3eec0bb433913baeb1fe34c25749f8b0029",
  "source": "pragma solidity ^0.4.13;\n\n/*\n  The ParkingAnchor represents a physical device that has a fixed location, and can be user to\n  validate a users request to pay for parking. It has two pieces of data, an authority and an anchorId,\n  which can be used as an external uuid. It is registered to an authority, hence also to\n  the authority's spatial registry. In order to accept payment from a user, the user must be\n  registered and authorized to park in the zone in which the anchor lives.\n*/\n\nimport \"./CSC.sol\";\nimport \"./User.sol\";\nimport \"./ParkingAuthority.sol\";\n\ncontract ParkingAnchor is Ownable, CSC {\n\n  bytes32 public anchorId;\n  ParkingAuthority public anchorAuthority;\n\n  event PaymentAccepted(address anchor, address user);\n\n  function ParkingAnchor(bytes8 _geohash, bytes32 _anchorId) public CSC(_geohash) Ownable() {  \n    anchorId = _anchorId;\n    anchorAuthority = ParkingAuthority(msg.sender);\n  }\n    \n  function acceptPayment() public payable returns(bool) {\n      bytes4 anchorZone = bytes4(geohash);\n      User user = anchorAuthority.members(msg.sender);\n      require(msg.value > 0);\n      \n      if (user.licensedZones(anchorZone) && user.pendingAnchor() == this) {\n          PaymentAccepted(this, address(user));\n          user.setLastCheckIn();\n          return true;\n      } else {\n          revert();\n      }\n  }\n}",
  "sourcePath": "/Users/martyall/code/foam/foam.contracts.deux/contracts/ParkingAnchor.sol",
  "compiler": {
    "name": "solc",
    "version": "0.4.18+commit.9cf6e910.Emscripten.clang"
  },
  "schemaVersion": "1.0.1",
  "updatedAt": "2018-03-21T22:18:57.326Z"
}