{
  "contractName": "ParkingAuthority",
  "abi": [
    {
      "constant": true,
      "inputs": [
        {
          "name": "",
          "type": "address"
        }
      ],
      "name": "members",
      "outputs": [
        {
          "name": "",
          "type": "address"
        }
      ],
      "payable": false,
      "stateMutability": "view",
      "type": "function"
    },
    {
      "constant": false,
      "inputs": [
        {
          "name": "_geohash",
          "type": "bytes8"
        },
        {
          "name": "_anchorId",
          "type": "bytes32"
        }
      ],
      "name": "deployParkingAnchor",
      "outputs": [],
      "payable": false,
      "stateMutability": "nonpayable",
      "type": "function"
    },
    {
      "constant": false,
      "inputs": [],
      "name": "registerUser",
      "outputs": [],
      "payable": false,
      "stateMutability": "nonpayable",
      "type": "function"
    },
    {
      "constant": false,
      "inputs": [
        {
          "name": "_zone",
          "type": "bytes4"
        }
      ],
      "name": "addZone",
      "outputs": [],
      "payable": false,
      "stateMutability": "nonpayable",
      "type": "function"
    },
    {
      "constant": true,
      "inputs": [],
      "name": "owner",
      "outputs": [
        {
          "name": "",
          "type": "address"
        }
      ],
      "payable": false,
      "stateMutability": "view",
      "type": "function"
    },
    {
      "constant": true,
      "inputs": [],
      "name": "parkingCSR",
      "outputs": [
        {
          "name": "",
          "type": "address"
        }
      ],
      "payable": false,
      "stateMutability": "view",
      "type": "function"
    },
    {
      "constant": false,
      "inputs": [
        {
          "name": "newOwner",
          "type": "address"
        }
      ],
      "name": "transferOwnership",
      "outputs": [],
      "payable": false,
      "stateMutability": "nonpayable",
      "type": "function"
    },
    {
      "inputs": [
        {
          "name": "foamCSR",
          "type": "address"
        }
      ],
      "payable": false,
      "stateMutability": "nonpayable",
      "type": "constructor"
    },
    {
      "anonymous": false,
      "inputs": [
        {
          "indexed": false,
          "name": "csc",
          "type": "bytes12"
        },
        {
          "indexed": false,
          "name": "addr",
          "type": "address"
        },
        {
          "indexed": false,
          "name": "geohash",
          "type": "bytes8"
        }
      ],
      "name": "RegisteredParkingAnchor",
      "type": "event"
    },
    {
      "anonymous": false,
      "inputs": [
        {
          "indexed": false,
          "name": "accountAddress",
          "type": "address"
        },
        {
          "indexed": false,
          "name": "userAddress",
          "type": "address"
        }
      ],
      "name": "RegisterParkingUser",
      "type": "event"
    },
    {
      "anonymous": false,
      "inputs": [
        {
          "indexed": true,
          "name": "previousOwner",
          "type": "address"
        },
        {
          "indexed": true,
          "name": "newOwner",
          "type": "address"
        }
      ],
      "name": "OwnershipTransferred",
      "type": "event"
    }
  ],
  "bytecode": "0x6060604052341561000f57600080fd5b60405160208061234383398101604052808051906020019091905050336000806101000a81548173ffffffffffffffffffffffffffffffffffffffff021916908373ffffffffffffffffffffffffffffffffffffffff16021790555080600160006101000a81548173ffffffffffffffffffffffffffffffffffffffff021916908373ffffffffffffffffffffffffffffffffffffffff16021790555050612287806100bc6000396000f300606060405260043610610083576000357c0100000000000000000000000000000000000000000000000000000000900463ffffffff16806308ae4b0c146100885780634ce19635146101015780634d3820eb1461014c57806369f16b7d146101615780638da5cb5b146101a3578063bd836fdc146101f8578063f2fde38b1461024d575b600080fd5b341561009357600080fd5b6100bf600480803573ffffffffffffffffffffffffffffffffffffffff16906020019091905050610286565b604051808273ffffffffffffffffffffffffffffffffffffffff1673ffffffffffffffffffffffffffffffffffffffff16815260200191505060405180910390f35b341561010c57600080fd5b61014a600480803577ffffffffffffffffffffffffffffffffffffffffffffffff1916906020019091908035600019169060200190919050506102b9565b005b341561015757600080fd5b61015f61067e565b005b341561016c57600080fd5b6101a160048080357bffffffffffffffffffffffffffffffffffffffffffffffffffffffff1916906020019091905050610843565b005b34156101ae57600080fd5b6101b661090e565b604051808273ffffffffffffffffffffffffffffffffffffffff1673ffffffffffffffffffffffffffffffffffffffff16815260200191505060405180910390f35b341561020357600080fd5b61020b610933565b604051808273ffffffffffffffffffffffffffffffffffffffff1673ffffffffffffffffffffffffffffffffffffffff16815260200191505060405180910390f35b341561025857600080fd5b610284600480803573ffffffffffffffffffffffffffffffffffffffff16906020019091905050610959565b005b60026020528060005260406000206000915054906101000a900473ffffffffffffffffffffffffffffffffffffffff1681565b60008060009054906101000a900473ffffffffffffffffffffffffffffffffffffffff1673ffffffffffffffffffffffffffffffffffffffff163373ffffffffffffffffffffffffffffffffffffffff1614151561031657600080fd5b600115156103248484610aae565b15151415610679578282610336610aba565b808377ffffffffffffffffffffffffffffffffffffffffffffffff191677ffffffffffffffffffffffffffffffffffffffffffffffff19168152602001826000191660001916815260200192505050604051809103906000f080151561039b57600080fd5b90508073ffffffffffffffffffffffffffffffffffffffff16634420e486600160009054906101000a900473ffffffffffffffffffffffffffffffffffffffff166040518263ffffffff167c0100000000000000000000000000000000000000000000000000000000028152600401808273ffffffffffffffffffffffffffffffffffffffff1673ffffffffffffffffffffffffffffffffffffffff168152602001915050600060405180830381600087803b151561045957600080fd5b6102c65a03f1151561046a57600080fd5b5050507f4df53346ad2f2a80d9c9349e225e169b2bb289129da06b9c0f35f43c678572658173ffffffffffffffffffffffffffffffffffffffff1663d55c3ca36000604051602001526040518163ffffffff167c0100000000000000000000000000000000000000000000000000000000028152600401602060405180830381600087803b15156104fa57600080fd5b6102c65a03f1151561050b57600080fd5b505050604051805190508285604051808473ffffffffffffffffffffffffffffffffffffffff191673ffffffffffffffffffffffffffffffffffffffff191681526020018373ffffffffffffffffffffffffffffffffffffffff1673ffffffffffffffffffffffffffffffffffffffff1681526020018277ffffffffffffffffffffffffffffffffffffffffffffffff191677ffffffffffffffffffffffffffffffffffffffffffffffff19168152602001935050505060405180910390a18073ffffffffffffffffffffffffffffffffffffffff1663f2fde38b336040518263ffffffff167c0100000000000000000000000000000000000000000000000000000000028152600401808273ffffffffffffffffffffffffffffffffffffffff1673ffffffffffffffffffffffffffffffffffffffff168152602001915050600060405180830381600087803b151561066457600080fd5b6102c65a03f1151561067557600080fd5b5050505b505050565b60008060009054906101000a900473ffffffffffffffffffffffffffffffffffffffff1673ffffffffffffffffffffffffffffffffffffffff163373ffffffffffffffffffffffffffffffffffffffff161415156106db57600080fd5b6106e3610aca565b604051809103906000f08015156106f957600080fd5b90508073ffffffffffffffffffffffffffffffffffffffff1663f2fde38b336040518263ffffffff167c0100000000000000000000000000000000000000000000000000000000028152600401808273ffffffffffffffffffffffffffffffffffffffff1673ffffffffffffffffffffffffffffffffffffffff168152602001915050600060405180830381600087803b151561079557600080fd5b6102c65a03f115156107a657600080fd5b5050507ff60a6e454f5351ba1db339f0bdbcb8fb8bfd72c5ef6e277c56f72682f84f21713382604051808373ffffffffffffffffffffffffffffffffffffffff1673ffffffffffffffffffffffffffffffffffffffff1681526020018273ffffffffffffffffffffffffffffffffffffffff1673ffffffffffffffffffffffffffffffffffffffff1681526020019250505060405180910390a150565b6000813391508173ffffffffffffffffffffffffffffffffffffffff166369f16b7d846040518263ffffffff167c010000000000000000000000000000000000000000000000000000000002815260040180827bffffffffffffffffffffffffffffffffffffffffffffffffffffffff19167bffffffffffffffffffffffffffffffffffffffffffffffffffffffff19168152602001915050600060405180830381600087803b15156108f557600080fd5b6102c65a03f1151561090657600080fd5b505050505050565b6000809054906101000a900473ffffffffffffffffffffffffffffffffffffffff1681565b600160009054906101000a900473ffffffffffffffffffffffffffffffffffffffff1681565b6000809054906101000a900473ffffffffffffffffffffffffffffffffffffffff1673ffffffffffffffffffffffffffffffffffffffff163373ffffffffffffffffffffffffffffffffffffffff161415156109b457600080fd5b600073ffffffffffffffffffffffffffffffffffffffff168173ffffffffffffffffffffffffffffffffffffffff16141515156109f057600080fd5b8073ffffffffffffffffffffffffffffffffffffffff166000809054906101000a900473ffffffffffffffffffffffffffffffffffffffff1673ffffffffffffffffffffffffffffffffffffffff167f8be0079c531659141344cd1fd0a4f28419497f9722a3daafe3b4186f6b6457e060405160405180910390a3806000806101000a81548173ffffffffffffffffffffffffffffffffffffffff021916908373ffffffffffffffffffffffffffffffffffffffff16021790555050565b60006001905092915050565b604051610bf180610adb83390190565b604051610b90806116cc8339019056006060604052341561000f57600080fd5b604051604080610bf18339810160405280805190602001909190805190602001909190505081336000806101000a81548173ffffffffffffffffffffffffffffffffffffffff021916908373ffffffffffffffffffffffffffffffffffffffff16021790555080600060146101000a81548167ffffffffffffffff021916908378010000000000000000000000000000000000000000000000009004021790555073__SpatialUtils__________________________63d538a8c2600060149054906101000a9004780100000000000000000000000000000000000000000000000002306000604051602001526040518363ffffffff167c0100000000000000000000000000000000000000000000000000000000028152600401808377ffffffffffffffffffffffffffffffffffffffffffffffff191677ffffffffffffffffffffffffffffffffffffffffffffffff191681526020018273ffffffffffffffffffffffffffffffffffffffff1673ffffffffffffffffffffffffffffffffffffffff1681526020019250505060206040518083038186803b15156101b457600080fd5b6102c65a03f415156101c557600080fd5b50505060405180519050600160006101000a8154816bffffffffffffffffffffffff0219169083740100000000000000000000000000000000000000009004021790555050806002816000191690555033600360006101000a81548173ffffffffffffffffffffffffffffffffffffffff021916908373ffffffffffffffffffffffffffffffffffffffff160217905550505061098a806102676000396000f30060606040526004361061008e576000357c0100000000000000000000000000000000000000000000000000000000900463ffffffff16806308e44f88146100935780634420e486146100f25780635b59619c1461012b5780638da5cb5b1461015c578063ae0aba8c146101b1578063bfa6e028146101d3578063d55c3ca314610228578063f2fde38b1461027f575b600080fd5b341561009e57600080fd5b6100a66102b8565b604051808277ffffffffffffffffffffffffffffffffffffffffffffffff191677ffffffffffffffffffffffffffffffffffffffffffffffff1916815260200191505060405180910390f35b34156100fd57600080fd5b610129600480803573ffffffffffffffffffffffffffffffffffffffff169060200190919050506102e3565b005b341561013657600080fd5b61013e6103bf565b60405180826000191660001916815260200191505060405180910390f35b341561016757600080fd5b61016f6103c5565b604051808273ffffffffffffffffffffffffffffffffffffffff1673ffffffffffffffffffffffffffffffffffffffff16815260200191505060405180910390f35b6101b96103ea565b604051808215151515815260200191505060405180910390f35b34156101de57600080fd5b6101e66107bc565b604051808273ffffffffffffffffffffffffffffffffffffffff1673ffffffffffffffffffffffffffffffffffffffff16815260200191505060405180910390f35b341561023357600080fd5b61023b6107e2565b604051808273ffffffffffffffffffffffffffffffffffffffff191673ffffffffffffffffffffffffffffffffffffffff1916815260200191505060405180910390f35b341561028a57600080fd5b6102b6600480803573ffffffffffffffffffffffffffffffffffffffff16906020019091905050610809565b005b600060149054906101000a900478010000000000000000000000000000000000000000000000000281565b60008190508073ffffffffffffffffffffffffffffffffffffffff1663c5f310c0600160009054906101000a900474010000000000000000000000000000000000000000026040518263ffffffff167c0100000000000000000000000000000000000000000000000000000000028152600401808273ffffffffffffffffffffffffffffffffffffffff191673ffffffffffffffffffffffffffffffffffffffff19168152602001915050600060405180830381600087803b15156103a757600080fd5b6102c65a03f115156103b857600080fd5b5050505050565b60025481565b6000809054906101000a900473ffffffffffffffffffffffffffffffffffffffff1681565b60008060008060149054906101000a90047801000000000000000000000000000000000000000000000000029150600360009054906101000a900473ffffffffffffffffffffffffffffffffffffffff1673ffffffffffffffffffffffffffffffffffffffff166308ae4b0c336000604051602001526040518263ffffffff167c0100000000000000000000000000000000000000000000000000000000028152600401808273ffffffffffffffffffffffffffffffffffffffff1673ffffffffffffffffffffffffffffffffffffffff168152602001915050602060405180830381600087803b15156104dd57600080fd5b6102c65a03f115156104ee57600080fd5b50505060405180519050905060003411151561050957600080fd5b8073ffffffffffffffffffffffffffffffffffffffff16637dcf8dea836000604051602001526040518263ffffffff167c010000000000000000000000000000000000000000000000000000000002815260040180827bffffffffffffffffffffffffffffffffffffffffffffffffffffffff19167bffffffffffffffffffffffffffffffffffffffffffffffffffffffff19168152602001915050602060405180830381600087803b15156105be57600080fd5b6102c65a03f115156105cf57600080fd5b50505060405180519050801561069657503073ffffffffffffffffffffffffffffffffffffffff168173ffffffffffffffffffffffffffffffffffffffff1663b66fd5cc6000604051602001526040518163ffffffff167c0100000000000000000000000000000000000000000000000000000000028152600401602060405180830381600087803b151561066357600080fd5b6102c65a03f1151561067457600080fd5b5050506040518051905073ffffffffffffffffffffffffffffffffffffffff16145b156107b2577fe508aabf86caa3d4a6d688daaba1557710255b898343f7f8b71765d80da25a803082604051808373ffffffffffffffffffffffffffffffffffffffff1673ffffffffffffffffffffffffffffffffffffffff1681526020018273ffffffffffffffffffffffffffffffffffffffff1673ffffffffffffffffffffffffffffffffffffffff1681526020019250505060405180910390a18073ffffffffffffffffffffffffffffffffffffffff1663871ea4526040518163ffffffff167c0100000000000000000000000000000000000000000000000000000000028152600401600060405180830381600087803b151561079557600080fd5b6102c65a03f115156107a657600080fd5b505050600192506107b7565b600080fd5b505090565b600360009054906101000a900473ffffffffffffffffffffffffffffffffffffffff1681565b600160009054906101000a9004740100000000000000000000000000000000000000000281565b6000809054906101000a900473ffffffffffffffffffffffffffffffffffffffff1673ffffffffffffffffffffffffffffffffffffffff163373ffffffffffffffffffffffffffffffffffffffff1614151561086457600080fd5b600073ffffffffffffffffffffffffffffffffffffffff168173ffffffffffffffffffffffffffffffffffffffff16141515156108a057600080fd5b8073ffffffffffffffffffffffffffffffffffffffff166000809054906101000a900473ffffffffffffffffffffffffffffffffffffffff1673ffffffffffffffffffffffffffffffffffffffff167f8be0079c531659141344cd1fd0a4f28419497f9722a3daafe3b4186f6b6457e060405160405180910390a3806000806101000a81548173ffffffffffffffffffffffffffffffffffffffff021916908373ffffffffffffffffffffffffffffffffffffffff160217905550505600a165627a7a72305820b148a231785134c4ceaf4ea346fbad5aa3eec0bb433913baeb1fe34c25749f8b00296060604052341561000f57600080fd5b336000806101000a81548173ffffffffffffffffffffffffffffffffffffffff021916908373ffffffffffffffffffffffffffffffffffffffff16021790555033600460006101000a81548173ffffffffffffffffffffffffffffffffffffffff021916908373ffffffffffffffffffffffffffffffffffffffff160217905550610af18061009f6000396000f3006060604052600436106100af576000357c0100000000000000000000000000000000000000000000000000000000900463ffffffff16806309b7d54a146100b4578063680197f3146100dd57806369f16b7d1461011f5780637dcf8dea14610161578063871ea452146101bb5780638da5cb5b146101d0578063aa6cdd9714610225578063b66fd5cc1461027a578063bc175cc9146102cf578063db78dabd146102fd578063f2fde38b14610352575b600080fd5b34156100bf57600080fd5b6100c761038b565b6040518082815260200191505060405180910390f35b34156100e857600080fd5b61011d60048080357bffffffffffffffffffffffffffffffffffffffffffffffffffffffff1916906020019091905050610391565b005b341561012a57600080fd5b61015f60048080357bffffffffffffffffffffffffffffffffffffffffffffffffffffffff19169060200190919050506104d1565b005b341561016c57600080fd5b6101a160048080357bffffffffffffffffffffffffffffffffffffffffffffffffffffffff19169060200190919050506105a0565b604051808215151515815260200191505060405180910390f35b34156101c657600080fd5b6101ce6105c0565b005b34156101db57600080fd5b6101e361074a565b604051808273ffffffffffffffffffffffffffffffffffffffff1673ffffffffffffffffffffffffffffffffffffffff16815260200191505060405180910390f35b341561023057600080fd5b61023861076f565b604051808273ffffffffffffffffffffffffffffffffffffffff1673ffffffffffffffffffffffffffffffffffffffff16815260200191505060405180910390f35b341561028557600080fd5b61028d610795565b604051808273ffffffffffffffffffffffffffffffffffffffff1673ffffffffffffffffffffffffffffffffffffffff16815260200191505060405180910390f35b6102fb600480803573ffffffffffffffffffffffffffffffffffffffff169060200190919050506107bb565b005b341561030857600080fd5b6103106108ab565b604051808273ffffffffffffffffffffffffffffffffffffffff1673ffffffffffffffffffffffffffffffffffffffff16815260200191505060405180910390f35b341561035d57600080fd5b610389600480803573ffffffffffffffffffffffffffffffffffffffff169060200190919050506108d1565b005b60025481565b6000809054906101000a900473ffffffffffffffffffffffffffffffffffffffff1673ffffffffffffffffffffffffffffffffffffffff163373ffffffffffffffffffffffffffffffffffffffff161415156103ec57600080fd5b600460009054906101000a900473ffffffffffffffffffffffffffffffffffffffff1673ffffffffffffffffffffffffffffffffffffffff166369f16b7d826040518263ffffffff167c010000000000000000000000000000000000000000000000000000000002815260040180827bffffffffffffffffffffffffffffffffffffffffffffffffffffffff19167bffffffffffffffffffffffffffffffffffffffffffffffffffffffff19168152602001915050600060405180830381600087803b15156104ba57600080fd5b6102c65a03f115156104cb57600080fd5b50505050565b60003390508073ffffffffffffffffffffffffffffffffffffffff16600460009054906101000a900473ffffffffffffffffffffffffffffffffffffffff1673ffffffffffffffffffffffffffffffffffffffff1614151561053257600080fd5b600160056000847bffffffffffffffffffffffffffffffffffffffffffffffffffffffff19167bffffffffffffffffffffffffffffffffffffffffffffffffffffffff1916815260200190815260200160002060006101000a81548160ff0219169083151502179055505050565b60056020528060005260406000206000915054906101000a900460ff1681565b600080339050600360009054906101000a900473ffffffffffffffffffffffffffffffffffffffff1673ffffffffffffffffffffffffffffffffffffffff168173ffffffffffffffffffffffffffffffffffffffff1614151561062257600080fd5b33915081600160006101000a81548173ffffffffffffffffffffffffffffffffffffffff021916908373ffffffffffffffffffffffffffffffffffffffff160217905550436002819055507ff44d868c145e192ab2786eaa3827a434702c53e71182f67bb3915a85fe877f103033604051808373ffffffffffffffffffffffffffffffffffffffff1673ffffffffffffffffffffffffffffffffffffffff1681526020018273ffffffffffffffffffffffffffffffffffffffff1673ffffffffffffffffffffffffffffffffffffffff1681526020019250505060405180910390a16000600360006101000a81548173ffffffffffffffffffffffffffffffffffffffff021916908373ffffffffffffffffffffffffffffffffffffffff1602179055505050565b6000809054906101000a900473ffffffffffffffffffffffffffffffffffffffff1681565b600460009054906101000a900473ffffffffffffffffffffffffffffffffffffffff1681565b600360009054906101000a900473ffffffffffffffffffffffffffffffffffffffff1681565b6000809054906101000a900473ffffffffffffffffffffffffffffffffffffffff1673ffffffffffffffffffffffffffffffffffffffff163373ffffffffffffffffffffffffffffffffffffffff1614151561081657600080fd5b61081f81610a26565b8073ffffffffffffffffffffffffffffffffffffffff1663ae0aba8c346000604051602001526040518263ffffffff167c01000000000000000000000000000000000000000000000000000000000281526004016020604051808303818588803b151561088b57600080fd5b6125ee5a03f1151561089c57600080fd5b50505050604051805190505050565b600160009054906101000a900473ffffffffffffffffffffffffffffffffffffffff1681565b6000809054906101000a900473ffffffffffffffffffffffffffffffffffffffff1673ffffffffffffffffffffffffffffffffffffffff163373ffffffffffffffffffffffffffffffffffffffff1614151561092c57600080fd5b600073ffffffffffffffffffffffffffffffffffffffff168173ffffffffffffffffffffffffffffffffffffffff161415151561096857600080fd5b8073ffffffffffffffffffffffffffffffffffffffff166000809054906101000a900473ffffffffffffffffffffffffffffffffffffffff1673ffffffffffffffffffffffffffffffffffffffff167f8be0079c531659141344cd1fd0a4f28419497f9722a3daafe3b4186f6b6457e060405160405180910390a3806000806101000a81548173ffffffffffffffffffffffffffffffffffffffff021916908373ffffffffffffffffffffffffffffffffffffffff16021790555050565b6000809054906101000a900473ffffffffffffffffffffffffffffffffffffffff1673ffffffffffffffffffffffffffffffffffffffff163373ffffffffffffffffffffffffffffffffffffffff16141515610a8157600080fd5b80600360006101000a81548173ffffffffffffffffffffffffffffffffffffffff021916908373ffffffffffffffffffffffffffffffffffffffff160217905550505600a165627a7a72305820154ec302784f81363397d53a86d8ec74d35af78d081f1ac6d0422062bff9bb3d0029a165627a7a72305820847d99f234f8ad56ef938978cd49893914b570a9929676eb59de0fe63722be180029",
  "source": "pragma solidity ^0.4.13;\n\n/*\n  The ParkingAuthority is the governing contract for ParkingDOA. It holds two important pieces of data--\n  the ParkingCSR, which is the crypto-spatial registry contract for all ParkingAnchors, and the user membership\n  list, which keeps track of all of the registered users of the DOA. It has the sole authority to extend these\n  two registries.\n*/\n\nimport \"./Ownable.sol\";\nimport \"./ParkingAnchor.sol\";\nimport \"./FoamCSR.sol\";\nimport \"./User.sol\";\n\ncontract ParkingAuthority is Ownable {\n    \n    FoamCSR public parkingCSR;\n    mapping(address => User) public members;\n    \n    event RegisteredParkingAnchor(bytes12 csc, address addr, bytes8 geohash);\n    event RegisterParkingUser(address accountAddress, address userAddress);\n\n    // Decide whether or not to give the user parking access to the zone. Mocked for now.\n    modifier shouldGiveAccess(bytes4 _zone) {\n      _;\n    }\n\n    // Deploy a new parking authority.\n    function ParkingAuthority(FoamCSR foamCSR) public Ownable() {\n      parkingCSR = foamCSR;\n    }\n\n    // A function user to verify a ParkingAnchor, currently mocked.\n    function validateParkingAnchor(bytes8 _geohash, bytes32 _anchorId) internal pure returns(bool) {\n        return true;\n    }\n\n    // Deploy a ParkingAnchor at the given geohash with the given anchorId. Transfer ownership of the\n    // anchor to the sender of the transaction.\n    function deployParkingAnchor(bytes8 _geohash, bytes32 _anchorId) public onlyOwner() {\n        if (validateParkingAnchor(_geohash, _anchorId) == true) {\n            ParkingAnchor anchor = new ParkingAnchor(_geohash, _anchorId);\n            anchor.register(parkingCSR);\n            RegisteredParkingAnchor(anchor.csc(), address(anchor), _geohash);\n            anchor.transferOwnership(msg.sender);\n        }\n    }\n\n    // Create a new user and transer ownership of the account to the message sender.\n    function registerUser() public onlyOwner() {\n        User newUser = new User();\n        newUser.transferOwnership(msg.sender);\n        RegisterParkingUser(msg.sender, address(newUser));\n    }\n\n    // This function is called by a user when they want to add a zone to their listed of\n    // licensed zones.\n    function addZone(bytes4 _zone) public shouldGiveAccess(_zone) {\n      User user = User(msg.sender);\n      user.addZone(_zone);\n    }\n\n}\n",
  "sourcePath": "/Users/martyall/code/foam/foam.contracts.deux/contracts/ParkingAuthority.sol",
  "compiler": {
    "name": "solc",
    "version": "0.4.18+commit.9cf6e910.Emscripten.clang"
  },
  "schemaVersion": "1.0.1",
  "updatedAt": "2018-03-21T22:18:57.327Z"
}