{
  "contractName": "ParkingCSR",
  "abi": [
    {
      "constant": false,
      "inputs": [
        {
          "name": "newCsc",
          "type": "address"
        }
      ],
      "name": "register",
      "outputs": [],
      "payable": false,
      "stateMutability": "nonpayable",
      "type": "function"
    },
    {
      "constant": true,
      "inputs": [],
      "name": "owner",
      "outputs": [
        {
          "name": "",
          "type": "address"
        }
      ],
      "payable": false,
      "stateMutability": "view",
      "type": "function"
    },
    {
      "constant": false,
      "inputs": [
        {
          "name": "csc",
          "type": "bytes12"
        }
      ],
      "name": "registry",
      "outputs": [
        {
          "name": "",
          "type": "address"
        }
      ],
      "payable": false,
      "stateMutability": "nonpayable",
      "type": "function"
    },
    {
      "constant": false,
      "inputs": [
        {
          "name": "newOwner",
          "type": "address"
        }
      ],
      "name": "transferOwnership",
      "outputs": [],
      "payable": false,
      "stateMutability": "nonpayable",
      "type": "function"
    },
    {
      "inputs": [],
      "payable": false,
      "stateMutability": "nonpayable",
      "type": "constructor"
    },
    {
      "anonymous": false,
      "inputs": [
        {
          "indexed": true,
          "name": "previousOwner",
          "type": "address"
        },
        {
          "indexed": true,
          "name": "newOwner",
          "type": "address"
        }
      ],
      "name": "OwnershipTransferred",
      "type": "event"
    }
  ],
  "bytecode": "0x6060604052341561000f57600080fd5b336000806101000a81548173ffffffffffffffffffffffffffffffffffffffff021916908373ffffffffffffffffffffffffffffffffffffffff16021790555061076d8061005e6000396000f300606060405260043610610062576000357c0100000000000000000000000000000000000000000000000000000000900463ffffffff1680634420e486146100675780638da5cb5b146100a0578063b5b134a0146100f5578063f2fde38b1461016f575b600080fd5b341561007257600080fd5b61009e600480803573ffffffffffffffffffffffffffffffffffffffff169060200190919050506101a8565b005b34156100ab57600080fd5b6100b361055c565b604051808273ffffffffffffffffffffffffffffffffffffffff1673ffffffffffffffffffffffffffffffffffffffff16815260200191505060405180910390f35b341561010057600080fd5b61012d600480803573ffffffffffffffffffffffffffffffffffffffff1916906020019091905050610581565b604051808273ffffffffffffffffffffffffffffffffffffffff1673ffffffffffffffffffffffffffffffffffffffff16815260200191505060405180910390f35b341561017a57600080fd5b6101a6600480803573ffffffffffffffffffffffffffffffffffffffff169060200190919050506105ec565b005b6000806000806000809054906101000a900473ffffffffffffffffffffffffffffffffffffffff1673ffffffffffffffffffffffffffffffffffffffff163373ffffffffffffffffffffffffffffffffffffffff1614151561020957600080fd5b8473ffffffffffffffffffffffffffffffffffffffff1663d55c3ca36000604051602001526040518163ffffffff167c0100000000000000000000000000000000000000000000000000000000028152600401602060405180830381600087803b151561027557600080fd5b6102c65a03f1151561028657600080fd5b5050506040518051905093506000600160008673ffffffffffffffffffffffffffffffffffffffff191673ffffffffffffffffffffffffffffffffffffffff1916815260200190815260200160002060009054906101000a900473ffffffffffffffffffffffffffffffffffffffff1673ffffffffffffffffffffffffffffffffffffffff161415610555578492508473ffffffffffffffffffffffffffffffffffffffff166308e44f886000604051602001526040518163ffffffff167c0100000000000000000000000000000000000000000000000000000000028152600401602060405180830381600087803b151561038157600080fd5b6102c65a03f1151561039257600080fd5b50505060405180519050915073__SpatialUtils__________________________63d538a8c283856000604051602001526040518363ffffffff167c0100000000000000000000000000000000000000000000000000000000028152600401808377ffffffffffffffffffffffffffffffffffffffffffffffff191677ffffffffffffffffffffffffffffffffffffffffffffffff191681526020018273ffffffffffffffffffffffffffffffffffffffff1673ffffffffffffffffffffffffffffffffffffffff1681526020019250505060206040518083038186803b151561047b57600080fd5b6102c65a03f4151561048c57600080fd5b5050506040518051905090508373ffffffffffffffffffffffffffffffffffffffff19168173ffffffffffffffffffffffffffffffffffffffff19161415156104d457600080fd5b82600160008673ffffffffffffffffffffffffffffffffffffffff191673ffffffffffffffffffffffffffffffffffffffff1916815260200190815260200160002060006101000a81548173ffffffffffffffffffffffffffffffffffffffff021916908373ffffffffffffffffffffffffffffffffffffffff1602179055505b5050505050565b6000809054906101000a900473ffffffffffffffffffffffffffffffffffffffff1681565b6000600160008373ffffffffffffffffffffffffffffffffffffffff191673ffffffffffffffffffffffffffffffffffffffff1916815260200190815260200160002060009054906101000a900473ffffffffffffffffffffffffffffffffffffffff169050919050565b6000809054906101000a900473ffffffffffffffffffffffffffffffffffffffff1673ffffffffffffffffffffffffffffffffffffffff163373ffffffffffffffffffffffffffffffffffffffff1614151561064757600080fd5b600073ffffffffffffffffffffffffffffffffffffffff168173ffffffffffffffffffffffffffffffffffffffff161415151561068357600080fd5b8073ffffffffffffffffffffffffffffffffffffffff166000809054906101000a900473ffffffffffffffffffffffffffffffffffffffff1673ffffffffffffffffffffffffffffffffffffffff167f8be0079c531659141344cd1fd0a4f28419497f9722a3daafe3b4186f6b6457e060405160405180910390a3806000806101000a81548173ffffffffffffffffffffffffffffffffffffffff021916908373ffffffffffffffffffffffffffffffffffffffff160217905550505600a165627a7a72305820e6ab608d165b0ccec94d1f9d7962fe31dedaaa1ddf4b38b6f23be348b9a306ff0029",
  "source": "pragma solidity ^0.4.13;\n\nimport \"./CSR.sol\";\nimport \"./Ownable.sol\";\n\n/*\n  ParkingCSR is the spatial registry contract for the ParkingAuthority, and is owned\n  by it. It implements the minimum CSR methods in a straightforward way.\n*/\n\ncontract ParkingCSR is Ownable, CSR {\n    \n  mapping(bytes12 => address) CSCRegistry;\n\n  function ParkingCSR() public Ownable() {\n      \n  }\n\n  function registry(bytes12 csc) public returns(address) {\n      return CSCRegistry[csc];\n  }\n\n  function register(CSC newCsc) public onlyOwner() {\n    bytes12 csc = newCsc.csc();\n    if (CSCRegistry[csc] == 0) {\n      address cscAddr = address(newCsc);\n      bytes8 geohash = newCsc.geohash();\n      bytes12 computedCSC = SpatialUtils.computeCSC(geohash, cscAddr);\n      require(computedCSC == csc);\n      CSCRegistry[csc] = cscAddr;\n    }\n  }\n}",
  "sourcePath": "/Users/martyall/code/foam/foam.contracts.deux/contracts/ParkingCSR.sol",
  "compiler": {
    "name": "solc",
    "version": "0.4.18+commit.9cf6e910.Emscripten.clang"
  },
  "schemaVersion": "1.0.1",
  "updatedAt": "2018-03-21T21:25:41.999Z"
}