{
  "contractName": "ParkingAuthority",
  "abi": [
    {
      "constant": true,
      "inputs": [
        {
          "name": "",
          "type": "address"
        }
      ],
      "name": "members",
      "outputs": [
        {
          "name": "",
          "type": "address"
        }
      ],
      "payable": false,
      "stateMutability": "view",
      "type": "function"
    },
    {
      "constant": false,
      "inputs": [
        {
          "name": "_geohash",
          "type": "bytes8"
        },
        {
          "name": "_anchorId",
          "type": "bytes32"
        }
      ],
      "name": "deployParkingAnchor",
      "outputs": [],
      "payable": false,
      "stateMutability": "nonpayable",
      "type": "function"
    },
    {
      "constant": false,
      "inputs": [],
      "name": "registerUser",
      "outputs": [],
      "payable": false,
      "stateMutability": "nonpayable",
      "type": "function"
    },
    {
      "constant": false,
      "inputs": [
        {
          "name": "_zone",
          "type": "bytes4"
        }
      ],
      "name": "addZone",
      "outputs": [],
      "payable": false,
      "stateMutability": "nonpayable",
      "type": "function"
    },
    {
      "constant": true,
      "inputs": [],
      "name": "owner",
      "outputs": [
        {
          "name": "",
          "type": "address"
        }
      ],
      "payable": false,
      "stateMutability": "view",
      "type": "function"
    },
    {
      "constant": true,
      "inputs": [],
      "name": "parkingCSR",
      "outputs": [
        {
          "name": "",
          "type": "address"
        }
      ],
      "payable": false,
      "stateMutability": "view",
      "type": "function"
    },
    {
      "constant": false,
      "inputs": [
        {
          "name": "newOwner",
          "type": "address"
        }
      ],
      "name": "transferOwnership",
      "outputs": [],
      "payable": false,
      "stateMutability": "nonpayable",
      "type": "function"
    },
    {
      "inputs": [],
      "payable": false,
      "stateMutability": "nonpayable",
      "type": "constructor"
    },
    {
      "anonymous": false,
      "inputs": [
        {
          "indexed": false,
          "name": "csc",
          "type": "bytes12"
        },
        {
          "indexed": false,
          "name": "addr",
          "type": "address"
        },
        {
          "indexed": false,
          "name": "geohash",
          "type": "bytes8"
        }
      ],
      "name": "RegisteredParkingAnchor",
      "type": "event"
    },
    {
      "anonymous": false,
      "inputs": [
        {
          "indexed": false,
          "name": "accountAddress",
          "type": "address"
        },
        {
          "indexed": false,
          "name": "userAddress",
          "type": "address"
        }
      ],
      "name": "RegisterParkingUser",
      "type": "event"
    },
    {
      "anonymous": false,
      "inputs": [
        {
          "indexed": true,
          "name": "previousOwner",
          "type": "address"
        },
        {
          "indexed": true,
          "name": "newOwner",
          "type": "address"
        }
      ],
      "name": "OwnershipTransferred",
      "type": "event"
    }
  ],
  "bytecode": "0x6060604052341561000f57600080fd5b336000806101000a81548173ffffffffffffffffffffffffffffffffffffffff021916908373ffffffffffffffffffffffffffffffffffffffff1602179055506100576100b2565b604051809103906000f080151561006d57600080fd5b600160006101000a81548173ffffffffffffffffffffffffffffffffffffffff021916908373ffffffffffffffffffffffffffffffffffffffff1602179055506100c2565b6040516107cb8061224c83390190565b61217b806100d16000396000f300606060405260043610610083576000357c0100000000000000000000000000000000000000000000000000000000900463ffffffff16806308ae4b0c146100885780634ce19635146101015780634d3820eb1461014c57806369f16b7d146101615780638da5cb5b146101a3578063bd836fdc146101f8578063f2fde38b1461024d575b600080fd5b341561009357600080fd5b6100bf600480803573ffffffffffffffffffffffffffffffffffffffff16906020019091905050610286565b604051808273ffffffffffffffffffffffffffffffffffffffff1673ffffffffffffffffffffffffffffffffffffffff16815260200191505060405180910390f35b341561010c57600080fd5b61014a600480803577ffffffffffffffffffffffffffffffffffffffffffffffff1916906020019091908035600019169060200190919050506102b9565b005b341561015757600080fd5b61015f61067e565b005b341561016c57600080fd5b6101a160048080357bffffffffffffffffffffffffffffffffffffffffffffffffffffffff1916906020019091905050610843565b005b34156101ae57600080fd5b6101b6610921565b604051808273ffffffffffffffffffffffffffffffffffffffff1673ffffffffffffffffffffffffffffffffffffffff16815260200191505060405180910390f35b341561020357600080fd5b61020b610946565b604051808273ffffffffffffffffffffffffffffffffffffffff1673ffffffffffffffffffffffffffffffffffffffff16815260200191505060405180910390f35b341561025857600080fd5b610284600480803573ffffffffffffffffffffffffffffffffffffffff1690602001909190505061096c565b005b60026020528060005260406000206000915054906101000a900473ffffffffffffffffffffffffffffffffffffffff1681565b60008060009054906101000a900473ffffffffffffffffffffffffffffffffffffffff1673ffffffffffffffffffffffffffffffffffffffff163373ffffffffffffffffffffffffffffffffffffffff1614151561031657600080fd5b600115156103248484610ac1565b15151415610679578282610336610ad9565b808377ffffffffffffffffffffffffffffffffffffffffffffffff191677ffffffffffffffffffffffffffffffffffffffffffffffff19168152602001826000191660001916815260200192505050604051809103906000f080151561039b57600080fd5b9050600160009054906101000a900473ffffffffffffffffffffffffffffffffffffffff1673ffffffffffffffffffffffffffffffffffffffff16634420e486826040518263ffffffff167c0100000000000000000000000000000000000000000000000000000000028152600401808273ffffffffffffffffffffffffffffffffffffffff1673ffffffffffffffffffffffffffffffffffffffff168152602001915050600060405180830381600087803b151561045957600080fd5b6102c65a03f1151561046a57600080fd5b5050507f4df53346ad2f2a80d9c9349e225e169b2bb289129da06b9c0f35f43c678572658173ffffffffffffffffffffffffffffffffffffffff1663d55c3ca36000604051602001526040518163ffffffff167c0100000000000000000000000000000000000000000000000000000000028152600401602060405180830381600087803b15156104fa57600080fd5b6102c65a03f1151561050b57600080fd5b505050604051805190508285604051808473ffffffffffffffffffffffffffffffffffffffff191673ffffffffffffffffffffffffffffffffffffffff191681526020018373ffffffffffffffffffffffffffffffffffffffff1673ffffffffffffffffffffffffffffffffffffffff1681526020018277ffffffffffffffffffffffffffffffffffffffffffffffff191677ffffffffffffffffffffffffffffffffffffffffffffffff19168152602001935050505060405180910390a18073ffffffffffffffffffffffffffffffffffffffff1663f2fde38b336040518263ffffffff167c0100000000000000000000000000000000000000000000000000000000028152600401808273ffffffffffffffffffffffffffffffffffffffff1673ffffffffffffffffffffffffffffffffffffffff168152602001915050600060405180830381600087803b151561066457600080fd5b6102c65a03f1151561067557600080fd5b5050505b505050565b60008060009054906101000a900473ffffffffffffffffffffffffffffffffffffffff1673ffffffffffffffffffffffffffffffffffffffff163373ffffffffffffffffffffffffffffffffffffffff161415156106db57600080fd5b6106e3610ae9565b604051809103906000f08015156106f957600080fd5b90508073ffffffffffffffffffffffffffffffffffffffff1663f2fde38b336040518263ffffffff167c0100000000000000000000000000000000000000000000000000000000028152600401808273ffffffffffffffffffffffffffffffffffffffff1673ffffffffffffffffffffffffffffffffffffffff168152602001915050600060405180830381600087803b151561079557600080fd5b6102c65a03f115156107a657600080fd5b5050507ff60a6e454f5351ba1db339f0bdbcb8fb8bfd72c5ef6e277c56f72682f84f21713382604051808373ffffffffffffffffffffffffffffffffffffffff1673ffffffffffffffffffffffffffffffffffffffff1681526020018273ffffffffffffffffffffffffffffffffffffffff1673ffffffffffffffffffffffffffffffffffffffff1681526020019250505060405180910390a150565b60003390506108528183610acd565b151561085d57600080fd5b8073ffffffffffffffffffffffffffffffffffffffff166369f16b7d836040518263ffffffff167c010000000000000000000000000000000000000000000000000000000002815260040180827bffffffffffffffffffffffffffffffffffffffffffffffffffffffff19167bffffffffffffffffffffffffffffffffffffffffffffffffffffffff19168152602001915050600060405180830381600087803b151561090957600080fd5b6102c65a03f1151561091a57600080fd5b5050505050565b6000809054906101000a900473ffffffffffffffffffffffffffffffffffffffff1681565b600160009054906101000a900473ffffffffffffffffffffffffffffffffffffffff1681565b6000809054906101000a900473ffffffffffffffffffffffffffffffffffffffff1673ffffffffffffffffffffffffffffffffffffffff163373ffffffffffffffffffffffffffffffffffffffff161415156109c757600080fd5b600073ffffffffffffffffffffffffffffffffffffffff168173ffffffffffffffffffffffffffffffffffffffff1614151515610a0357600080fd5b8073ffffffffffffffffffffffffffffffffffffffff166000809054906101000a900473ffffffffffffffffffffffffffffffffffffffff1673ffffffffffffffffffffffffffffffffffffffff167f8be0079c531659141344cd1fd0a4f28419497f9722a3daafe3b4186f6b6457e060405160405180910390a3806000806101000a81548173ffffffffffffffffffffffffffffffffffffffff021916908373ffffffffffffffffffffffffffffffffffffffff16021790555050565b60006001905092915050565b60006001905092915050565b604051610ad180610afa83390190565b604051610b85806115cb8339019056006060604052341561000f57600080fd5b604051604080610ad18339810160405280805190602001909190805190602001909190505081336000806101000a81548173ffffffffffffffffffffffffffffffffffffffff021916908373ffffffffffffffffffffffffffffffffffffffff16021790555080600060146101000a81548167ffffffffffffffff021916908378010000000000000000000000000000000000000000000000009004021790555073__SpatialUtils__________________________63d538a8c2600060149054906101000a9004780100000000000000000000000000000000000000000000000002306000604051602001526040518363ffffffff167c0100000000000000000000000000000000000000000000000000000000028152600401808377ffffffffffffffffffffffffffffffffffffffffffffffff191677ffffffffffffffffffffffffffffffffffffffffffffffff191681526020018273ffffffffffffffffffffffffffffffffffffffff1673ffffffffffffffffffffffffffffffffffffffff1681526020019250505060206040518083038186803b15156101b457600080fd5b6102c65a03f415156101c557600080fd5b50505060405180519050600160006101000a8154816bffffffffffffffffffffffff0219169083740100000000000000000000000000000000000000009004021790555050806002816000191690555033600360006101000a81548173ffffffffffffffffffffffffffffffffffffffff021916908373ffffffffffffffffffffffffffffffffffffffff160217905550505061086a806102676000396000f300606060405260043610610083576000357c0100000000000000000000000000000000000000000000000000000000900463ffffffff16806308e44f88146100885780635b59619c146100e75780638da5cb5b14610118578063ae0aba8c1461016d578063bfa6e0281461018f578063d55c3ca3146101e4578063f2fde38b1461023b575b600080fd5b341561009357600080fd5b61009b610274565b604051808277ffffffffffffffffffffffffffffffffffffffffffffffff191677ffffffffffffffffffffffffffffffffffffffffffffffff1916815260200191505060405180910390f35b34156100f257600080fd5b6100fa61029f565b60405180826000191660001916815260200191505060405180910390f35b341561012357600080fd5b61012b6102a5565b604051808273ffffffffffffffffffffffffffffffffffffffff1673ffffffffffffffffffffffffffffffffffffffff16815260200191505060405180910390f35b6101756102ca565b604051808215151515815260200191505060405180910390f35b341561019a57600080fd5b6101a261069c565b604051808273ffffffffffffffffffffffffffffffffffffffff1673ffffffffffffffffffffffffffffffffffffffff16815260200191505060405180910390f35b34156101ef57600080fd5b6101f76106c2565b604051808273ffffffffffffffffffffffffffffffffffffffff191673ffffffffffffffffffffffffffffffffffffffff1916815260200191505060405180910390f35b341561024657600080fd5b610272600480803573ffffffffffffffffffffffffffffffffffffffff169060200190919050506106e9565b005b600060149054906101000a900478010000000000000000000000000000000000000000000000000281565b60025481565b6000809054906101000a900473ffffffffffffffffffffffffffffffffffffffff1681565b60008060008060149054906101000a90047801000000000000000000000000000000000000000000000000029150600360009054906101000a900473ffffffffffffffffffffffffffffffffffffffff1673ffffffffffffffffffffffffffffffffffffffff166308ae4b0c336000604051602001526040518263ffffffff167c0100000000000000000000000000000000000000000000000000000000028152600401808273ffffffffffffffffffffffffffffffffffffffff1673ffffffffffffffffffffffffffffffffffffffff168152602001915050602060405180830381600087803b15156103bd57600080fd5b6102c65a03f115156103ce57600080fd5b5050506040518051905090506000341115156103e957600080fd5b8073ffffffffffffffffffffffffffffffffffffffff16637dcf8dea836000604051602001526040518263ffffffff167c010000000000000000000000000000000000000000000000000000000002815260040180827bffffffffffffffffffffffffffffffffffffffffffffffffffffffff19167bffffffffffffffffffffffffffffffffffffffffffffffffffffffff19168152602001915050602060405180830381600087803b151561049e57600080fd5b6102c65a03f115156104af57600080fd5b50505060405180519050801561057657503073ffffffffffffffffffffffffffffffffffffffff168173ffffffffffffffffffffffffffffffffffffffff1663b66fd5cc6000604051602001526040518163ffffffff167c0100000000000000000000000000000000000000000000000000000000028152600401602060405180830381600087803b151561054357600080fd5b6102c65a03f1151561055457600080fd5b5050506040518051905073ffffffffffffffffffffffffffffffffffffffff16145b15610692577fe508aabf86caa3d4a6d688daaba1557710255b898343f7f8b71765d80da25a803082604051808373ffffffffffffffffffffffffffffffffffffffff1673ffffffffffffffffffffffffffffffffffffffff1681526020018273ffffffffffffffffffffffffffffffffffffffff1673ffffffffffffffffffffffffffffffffffffffff1681526020019250505060405180910390a18073ffffffffffffffffffffffffffffffffffffffff1663871ea4526040518163ffffffff167c0100000000000000000000000000000000000000000000000000000000028152600401600060405180830381600087803b151561067557600080fd5b6102c65a03f1151561068657600080fd5b50505060019250610697565b600080fd5b505090565b600360009054906101000a900473ffffffffffffffffffffffffffffffffffffffff1681565b600160009054906101000a9004740100000000000000000000000000000000000000000281565b6000809054906101000a900473ffffffffffffffffffffffffffffffffffffffff1673ffffffffffffffffffffffffffffffffffffffff163373ffffffffffffffffffffffffffffffffffffffff1614151561074457600080fd5b600073ffffffffffffffffffffffffffffffffffffffff168173ffffffffffffffffffffffffffffffffffffffff161415151561078057600080fd5b8073ffffffffffffffffffffffffffffffffffffffff166000809054906101000a900473ffffffffffffffffffffffffffffffffffffffff1673ffffffffffffffffffffffffffffffffffffffff167f8be0079c531659141344cd1fd0a4f28419497f9722a3daafe3b4186f6b6457e060405160405180910390a3806000806101000a81548173ffffffffffffffffffffffffffffffffffffffff021916908373ffffffffffffffffffffffffffffffffffffffff160217905550505600a165627a7a7230582034b7ee36e5bd599318424518cd37d36ef46d0be04075b3329f5f8491001b200300296060604052341561000f57600080fd5b336000806101000a81548173ffffffffffffffffffffffffffffffffffffffff021916908373ffffffffffffffffffffffffffffffffffffffff16021790555033600460006101000a81548173ffffffffffffffffffffffffffffffffffffffff021916908373ffffffffffffffffffffffffffffffffffffffff160217905550610ae68061009f6000396000f3006060604052600436106100af576000357c0100000000000000000000000000000000000000000000000000000000900463ffffffff16806309b7d54a146100b4578063680197f3146100dd57806369f16b7d1461011f5780637dcf8dea14610161578063871ea452146101bb5780638da5cb5b146101d0578063aa6cdd9714610225578063b66fd5cc1461027a578063bc175cc9146102cf578063db78dabd146102fd578063f2fde38b14610352575b600080fd5b34156100bf57600080fd5b6100c761038b565b6040518082815260200191505060405180910390f35b34156100e857600080fd5b61011d60048080357bffffffffffffffffffffffffffffffffffffffffffffffffffffffff1916906020019091905050610391565b005b341561012a57600080fd5b61015f60048080357bffffffffffffffffffffffffffffffffffffffffffffffffffffffff19169060200190919050506104d1565b005b341561016c57600080fd5b6101a160048080357bffffffffffffffffffffffffffffffffffffffffffffffffffffffff191690602001909190505061059a565b604051808215151515815260200191505060405180910390f35b34156101c657600080fd5b6101ce6105ba565b005b34156101db57600080fd5b6101e361073f565b604051808273ffffffffffffffffffffffffffffffffffffffff1673ffffffffffffffffffffffffffffffffffffffff16815260200191505060405180910390f35b341561023057600080fd5b610238610764565b604051808273ffffffffffffffffffffffffffffffffffffffff1673ffffffffffffffffffffffffffffffffffffffff16815260200191505060405180910390f35b341561028557600080fd5b61028d61078a565b604051808273ffffffffffffffffffffffffffffffffffffffff1673ffffffffffffffffffffffffffffffffffffffff16815260200191505060405180910390f35b6102fb600480803573ffffffffffffffffffffffffffffffffffffffff169060200190919050506107b0565b005b341561030857600080fd5b6103106108a0565b604051808273ffffffffffffffffffffffffffffffffffffffff1673ffffffffffffffffffffffffffffffffffffffff16815260200191505060405180910390f35b341561035d57600080fd5b610389600480803573ffffffffffffffffffffffffffffffffffffffff169060200190919050506108c6565b005b60025481565b6000809054906101000a900473ffffffffffffffffffffffffffffffffffffffff1673ffffffffffffffffffffffffffffffffffffffff163373ffffffffffffffffffffffffffffffffffffffff161415156103ec57600080fd5b600460009054906101000a900473ffffffffffffffffffffffffffffffffffffffff1673ffffffffffffffffffffffffffffffffffffffff166369f16b7d826040518263ffffffff167c010000000000000000000000000000000000000000000000000000000002815260040180827bffffffffffffffffffffffffffffffffffffffffffffffffffffffff19167bffffffffffffffffffffffffffffffffffffffffffffffffffffffff19168152602001915050600060405180830381600087803b15156104ba57600080fd5b6102c65a03f115156104cb57600080fd5b50505050565b600460009054906101000a900473ffffffffffffffffffffffffffffffffffffffff1673ffffffffffffffffffffffffffffffffffffffff163373ffffffffffffffffffffffffffffffffffffffff1614151561052d57600080fd5b600160056000837bffffffffffffffffffffffffffffffffffffffffffffffffffffffff19167bffffffffffffffffffffffffffffffffffffffffffffffffffffffff1916815260200190815260200160002060006101000a81548160ff02191690831515021790555050565b60056020528060005260406000206000915054906101000a900460ff1681565b6000339050600360009054906101000a900473ffffffffffffffffffffffffffffffffffffffff1673ffffffffffffffffffffffffffffffffffffffff168173ffffffffffffffffffffffffffffffffffffffff1614151561061b57600080fd5b80600160006101000a81548173ffffffffffffffffffffffffffffffffffffffff021916908373ffffffffffffffffffffffffffffffffffffffff160217905550436002819055507ff44d868c145e192ab2786eaa3827a434702c53e71182f67bb3915a85fe877f103082604051808373ffffffffffffffffffffffffffffffffffffffff1673ffffffffffffffffffffffffffffffffffffffff1681526020018273ffffffffffffffffffffffffffffffffffffffff1673ffffffffffffffffffffffffffffffffffffffff1681526020019250505060405180910390a16000600360006101000a81548173ffffffffffffffffffffffffffffffffffffffff021916908373ffffffffffffffffffffffffffffffffffffffff16021790555050565b6000809054906101000a900473ffffffffffffffffffffffffffffffffffffffff1681565b600460009054906101000a900473ffffffffffffffffffffffffffffffffffffffff1681565b600360009054906101000a900473ffffffffffffffffffffffffffffffffffffffff1681565b6000809054906101000a900473ffffffffffffffffffffffffffffffffffffffff1673ffffffffffffffffffffffffffffffffffffffff163373ffffffffffffffffffffffffffffffffffffffff1614151561080b57600080fd5b61081481610a1b565b8073ffffffffffffffffffffffffffffffffffffffff1663ae0aba8c346000604051602001526040518263ffffffff167c01000000000000000000000000000000000000000000000000000000000281526004016020604051808303818588803b151561088057600080fd5b6125ee5a03f1151561089157600080fd5b50505050604051805190505050565b600160009054906101000a900473ffffffffffffffffffffffffffffffffffffffff1681565b6000809054906101000a900473ffffffffffffffffffffffffffffffffffffffff1673ffffffffffffffffffffffffffffffffffffffff163373ffffffffffffffffffffffffffffffffffffffff1614151561092157600080fd5b600073ffffffffffffffffffffffffffffffffffffffff168173ffffffffffffffffffffffffffffffffffffffff161415151561095d57600080fd5b8073ffffffffffffffffffffffffffffffffffffffff166000809054906101000a900473ffffffffffffffffffffffffffffffffffffffff1673ffffffffffffffffffffffffffffffffffffffff167f8be0079c531659141344cd1fd0a4f28419497f9722a3daafe3b4186f6b6457e060405160405180910390a3806000806101000a81548173ffffffffffffffffffffffffffffffffffffffff021916908373ffffffffffffffffffffffffffffffffffffffff16021790555050565b6000809054906101000a900473ffffffffffffffffffffffffffffffffffffffff1673ffffffffffffffffffffffffffffffffffffffff163373ffffffffffffffffffffffffffffffffffffffff16141515610a7657600080fd5b80600360006101000a81548173ffffffffffffffffffffffffffffffffffffffff021916908373ffffffffffffffffffffffffffffffffffffffff160217905550505600a165627a7a723058200e2458391e018ff25ac3ee7deed0d0b8b2f31511ea5d6741d2e702aa59cd6ea70029a165627a7a72305820ea1c7dbcdd69b01a68a9ef8b921237cd81695f36e3ec1c3d278d36978ee21a4400296060604052341561000f57600080fd5b336000806101000a81548173ffffffffffffffffffffffffffffffffffffffff021916908373ffffffffffffffffffffffffffffffffffffffff16021790555061076d8061005e6000396000f300606060405260043610610062576000357c0100000000000000000000000000000000000000000000000000000000900463ffffffff1680634420e486146100675780638da5cb5b146100a0578063b5b134a0146100f5578063f2fde38b1461016f575b600080fd5b341561007257600080fd5b61009e600480803573ffffffffffffffffffffffffffffffffffffffff169060200190919050506101a8565b005b34156100ab57600080fd5b6100b361055c565b604051808273ffffffffffffffffffffffffffffffffffffffff1673ffffffffffffffffffffffffffffffffffffffff16815260200191505060405180910390f35b341561010057600080fd5b61012d600480803573ffffffffffffffffffffffffffffffffffffffff1916906020019091905050610581565b604051808273ffffffffffffffffffffffffffffffffffffffff1673ffffffffffffffffffffffffffffffffffffffff16815260200191505060405180910390f35b341561017a57600080fd5b6101a6600480803573ffffffffffffffffffffffffffffffffffffffff169060200190919050506105ec565b005b6000806000806000809054906101000a900473ffffffffffffffffffffffffffffffffffffffff1673ffffffffffffffffffffffffffffffffffffffff163373ffffffffffffffffffffffffffffffffffffffff1614151561020957600080fd5b8473ffffffffffffffffffffffffffffffffffffffff1663d55c3ca36000604051602001526040518163ffffffff167c0100000000000000000000000000000000000000000000000000000000028152600401602060405180830381600087803b151561027557600080fd5b6102c65a03f1151561028657600080fd5b5050506040518051905093506000600160008673ffffffffffffffffffffffffffffffffffffffff191673ffffffffffffffffffffffffffffffffffffffff1916815260200190815260200160002060009054906101000a900473ffffffffffffffffffffffffffffffffffffffff1673ffffffffffffffffffffffffffffffffffffffff161415610555578492508473ffffffffffffffffffffffffffffffffffffffff166308e44f886000604051602001526040518163ffffffff167c0100000000000000000000000000000000000000000000000000000000028152600401602060405180830381600087803b151561038157600080fd5b6102c65a03f1151561039257600080fd5b50505060405180519050915073__SpatialUtils__________________________63d538a8c283856000604051602001526040518363ffffffff167c0100000000000000000000000000000000000000000000000000000000028152600401808377ffffffffffffffffffffffffffffffffffffffffffffffff191677ffffffffffffffffffffffffffffffffffffffffffffffff191681526020018273ffffffffffffffffffffffffffffffffffffffff1673ffffffffffffffffffffffffffffffffffffffff1681526020019250505060206040518083038186803b151561047b57600080fd5b6102c65a03f4151561048c57600080fd5b5050506040518051905090508373ffffffffffffffffffffffffffffffffffffffff19168173ffffffffffffffffffffffffffffffffffffffff19161415156104d457600080fd5b82600160008673ffffffffffffffffffffffffffffffffffffffff191673ffffffffffffffffffffffffffffffffffffffff1916815260200190815260200160002060006101000a81548173ffffffffffffffffffffffffffffffffffffffff021916908373ffffffffffffffffffffffffffffffffffffffff1602179055505b5050505050565b6000809054906101000a900473ffffffffffffffffffffffffffffffffffffffff1681565b6000600160008373ffffffffffffffffffffffffffffffffffffffff191673ffffffffffffffffffffffffffffffffffffffff1916815260200190815260200160002060009054906101000a900473ffffffffffffffffffffffffffffffffffffffff169050919050565b6000809054906101000a900473ffffffffffffffffffffffffffffffffffffffff1673ffffffffffffffffffffffffffffffffffffffff163373ffffffffffffffffffffffffffffffffffffffff1614151561064757600080fd5b600073ffffffffffffffffffffffffffffffffffffffff168173ffffffffffffffffffffffffffffffffffffffff161415151561068357600080fd5b8073ffffffffffffffffffffffffffffffffffffffff166000809054906101000a900473ffffffffffffffffffffffffffffffffffffffff1673ffffffffffffffffffffffffffffffffffffffff167f8be0079c531659141344cd1fd0a4f28419497f9722a3daafe3b4186f6b6457e060405160405180910390a3806000806101000a81548173ffffffffffffffffffffffffffffffffffffffff021916908373ffffffffffffffffffffffffffffffffffffffff160217905550505600a165627a7a72305820e6ab608d165b0ccec94d1f9d7962fe31dedaaa1ddf4b38b6f23be348b9a306ff0029",
  "source": "pragma solidity ^0.4.13;\n\n/*\n  The ParkingAuthority is the governing contract for ParkingDOA. It holds two important pieces of data--\n  the ParkingCSR, which is the crypto-spatial registry contract for all ParkingAnchors, and the user membership\n  list, which keeps track of all of the registered users of the DOA. It has the sole authority to extend these\n  two registries.\n*/\n\nimport \"./Ownable.sol\";\nimport \"./ParkingAnchor.sol\";\nimport \"./ParkingCSR.sol\";\nimport \"./User.sol\";\n\ncontract ParkingAuthority is Ownable {\n    \n    ParkingCSR public parkingCSR;\n    mapping(address => User) public members;\n    \n    event RegisteredParkingAnchor(bytes12 csc, address addr, bytes8 geohash);\n    event RegisterParkingUser(address accountAddress, address userAddress);\n\n    // Deploy a new parking authority.\n    function ParkingAuthority() public Ownable() {\n      parkingCSR = new ParkingCSR();\n    }\n\n    // A function user to verify a ParkingAnchor, currently mocked.\n    function validateParkingAnchor(bytes8 _geohash, bytes32 _anchorId) internal pure returns(bool) {\n        return true;\n    }\n\n    // Deploy a ParkingAnchor at the given geohash with the given anchorId. Transfer ownership of the\n    // anchor to the sender of the transaction.\n    function deployParkingAnchor(bytes8 _geohash, bytes32 _anchorId) public onlyOwner() {\n        if (validateParkingAnchor(_geohash, _anchorId) == true) {\n            ParkingAnchor anchor = new ParkingAnchor(_geohash, _anchorId);\n            parkingCSR.register(anchor);\n            RegisteredParkingAnchor(anchor.csc(), address(anchor), _geohash);\n            anchor.transferOwnership(msg.sender);\n        }\n    }\n\n    // Create a new user and transer ownership of the account to the message sender.\n    function registerUser() public onlyOwner() {\n        User newUser = new User();\n        newUser.transferOwnership(msg.sender);\n        RegisterParkingUser(msg.sender, address(newUser));\n    }\n\n    function shouldGiveAccess(User _user, bytes4 _zone) internal pure returns(bool) {\n      return true;\n    }\n\n    function addZone(bytes4 _zone) public {\n      User user = User(msg.sender);\n      require(shouldGiveAccess(user, _zone));\n      user.addZone(_zone);\n    }\n\n}\n",
  "sourcePath": "/Users/martyall/code/foam/foam.contracts.deux/contracts/ParkingAuthority.sol",
  "compiler": {
    "name": "solc",
    "version": "0.4.18+commit.9cf6e910.Emscripten.clang"
  },
  "schemaVersion": "1.0.1",
  "updatedAt": "2018-03-21T21:25:41.998Z"
}