{
  "contractName": "SimpleStorage",
  "abi": [
    {
      "constant": true,
      "inputs": [],
      "name": "count",
      "outputs": [
        {
          "name": "",
          "type": "uint256"
        }
      ],
      "payable": false,
      "stateMutability": "view",
      "type": "function"
    },
    {
      "constant": false,
      "inputs": [
        {
          "name": "_count",
          "type": "uint256"
        }
      ],
      "name": "setCount",
      "outputs": [],
      "payable": false,
      "stateMutability": "nonpayable",
      "type": "function"
    },
    {
      "inputs": [
        {
          "name": "_count",
          "type": "uint256"
        }
      ],
      "payable": false,
      "stateMutability": "nonpayable",
      "type": "constructor"
    },
    {
      "anonymous": false,
      "inputs": [
        {
          "indexed": false,
          "name": "_count",
          "type": "uint256"
        }
      ],
      "name": "CountSet",
      "type": "event"
    }
  ],
  "bytecode": "0x6060604052341561000f57600080fd5b604051602080610149833981016040528080519060200190919050508060008190555050610107806100426000396000f3006060604052600436106049576000357c0100000000000000000000000000000000000000000000000000000000900463ffffffff16806306661abd14604e578063d14e62b8146074575b600080fd5b3415605857600080fd5b605e6094565b6040518082815260200191505060405180910390f35b3415607e57600080fd5b60926004808035906020019091905050609a565b005b60005481565b806000819055507fa32bc18230dd172221ac5c4821a5f1f1a831f27b1396d244cdd891c58f132435816040518082815260200191505060405180910390a1505600a165627a7a72305820b648c68bc68fb31b11c40305c410b178eb7295c16f641511e8a5f6b0a9d65f650029",
  "source": "pragma solidity ^0.4.15;\n\ncontract SimpleStorage {\n    uint public count;\n\n    event CountSet(uint _count);\n\n    function SimpleStorage(uint _count) public {\n        count = _count;\n    } \n\n    function setCount(uint _count) public {\n        count = _count;\n        CountSet(_count);\n    }\n}\n",
  "sourcePath": "/Users/martyall/code/foam/foam.contracts.deux/contracts/SimpleStorage.sol",
  "compiler": {
    "name": "solc",
    "version": "0.4.18+commit.9cf6e910.Emscripten.clang"
  },
  "schemaVersion": "1.0.1",
  "updatedAt": "2018-03-21T22:23:24.382Z"
}