{
  "contractName": "SpatialUtils",
  "abi": [
    {
      "constant": true,
      "inputs": [
        {
          "name": "geohash_arg",
          "type": "bytes8"
        },
        {
          "name": "addr",
          "type": "address"
        }
      ],
      "name": "computeCSC",
      "outputs": [
        {
          "name": "",
          "type": "bytes12"
        }
      ],
      "payable": false,
      "stateMutability": "pure",
      "type": "function"
    }
  ],
  "bytecode": "0x6060604052341561000f57600080fd5b61019f8061001e6000396000f300606060405260043610610041576000357c0100000000000000000000000000000000000000000000000000000000900463ffffffff168063d538a8c214610046575b600080fd5b610096600480803577ffffffffffffffffffffffffffffffffffffffffffffffff191690602001909190803573ffffffffffffffffffffffffffffffffffffffff169060200190919050506100da565b604051808273ffffffffffffffffffffffffffffffffffffffff191673ffffffffffffffffffffffffffffffffffffffff1916815260200191505060405180910390f35b60008282604051808377ffffffffffffffffffffffffffffffffffffffffffffffff191677ffffffffffffffffffffffffffffffffffffffffffffffff191681526008018273ffffffffffffffffffffffffffffffffffffffff1673ffffffffffffffffffffffffffffffffffffffff166c010000000000000000000000000281526014019250505060405180910390209050929150505600a165627a7a723058208b8cfcb3c3a0515ab3291a9ad5cda60ca61e12bead7d69137f7af2e2e0381d2e0029",
  "source": "pragma solidity ^0.4.13;\n\n/*\n  SpatialUtils carries common functions needed across the FOAM contracts.\n*/\n\nlibrary SpatialUtils {\n    \n    function computeCSC(bytes8 geohash_arg, address addr) public pure returns(bytes12) {\n      return bytes12(keccak256(geohash_arg, addr));\n    }\n}",
  "sourcePath": "/Users/martyall/code/foam/foam.contracts.deux/contracts/SpatialUtils.sol",
  "compiler": {
    "name": "solc",
    "version": "0.4.18+commit.9cf6e910.Emscripten.clang"
  },
  "schemaVersion": "1.0.1",
  "updatedAt": "2018-03-21T22:23:24.382Z"
}