{
  "contractName": "User",
  "abi": [
    {
      "constant": true,
      "inputs": [],
      "name": "lastCheckInBlock",
      "outputs": [
        {
          "name": "",
          "type": "uint256"
        }
      ],
      "payable": false,
      "stateMutability": "view",
      "type": "function"
    },
    {
      "constant": false,
      "inputs": [
        {
          "name": "_zone",
          "type": "bytes4"
        }
      ],
      "name": "requestZone",
      "outputs": [],
      "payable": false,
      "stateMutability": "nonpayable",
      "type": "function"
    },
    {
      "constant": false,
      "inputs": [
        {
          "name": "_zone",
          "type": "bytes4"
        }
      ],
      "name": "addZone",
      "outputs": [],
      "payable": false,
      "stateMutability": "nonpayable",
      "type": "function"
    },
    {
      "constant": true,
      "inputs": [
        {
          "name": "",
          "type": "bytes4"
        }
      ],
      "name": "licensedZones",
      "outputs": [
        {
          "name": "",
          "type": "bool"
        }
      ],
      "payable": false,
      "stateMutability": "view",
      "type": "function"
    },
    {
      "constant": false,
      "inputs": [],
      "name": "setLastCheckIn",
      "outputs": [],
      "payable": false,
      "stateMutability": "nonpayable",
      "type": "function"
    },
    {
      "constant": true,
      "inputs": [],
      "name": "owner",
      "outputs": [
        {
          "name": "",
          "type": "address"
        }
      ],
      "payable": false,
      "stateMutability": "view",
      "type": "function"
    },
    {
      "constant": true,
      "inputs": [],
      "name": "parkingAuthority",
      "outputs": [
        {
          "name": "",
          "type": "address"
        }
      ],
      "payable": false,
      "stateMutability": "view",
      "type": "function"
    },
    {
      "constant": true,
      "inputs": [],
      "name": "pendingAnchor",
      "outputs": [
        {
          "name": "",
          "type": "address"
        }
      ],
      "payable": false,
      "stateMutability": "view",
      "type": "function"
    },
    {
      "constant": false,
      "inputs": [
        {
          "name": "_anchor",
          "type": "address"
        }
      ],
      "name": "payForParking",
      "outputs": [],
      "payable": true,
      "stateMutability": "payable",
      "type": "function"
    },
    {
      "constant": true,
      "inputs": [],
      "name": "lastCheckIn",
      "outputs": [
        {
          "name": "",
          "type": "address"
        }
      ],
      "payable": false,
      "stateMutability": "view",
      "type": "function"
    },
    {
      "constant": false,
      "inputs": [
        {
          "name": "newOwner",
          "type": "address"
        }
      ],
      "name": "transferOwnership",
      "outputs": [],
      "payable": false,
      "stateMutability": "nonpayable",
      "type": "function"
    },
    {
      "inputs": [],
      "payable": false,
      "stateMutability": "nonpayable",
      "type": "constructor"
    },
    {
      "anonymous": false,
      "inputs": [
        {
          "indexed": false,
          "name": "user",
          "type": "address"
        },
        {
          "indexed": false,
          "name": "anchor",
          "type": "address"
        }
      ],
      "name": "CheckIn",
      "type": "event"
    },
    {
      "anonymous": false,
      "inputs": [
        {
          "indexed": true,
          "name": "previousOwner",
          "type": "address"
        },
        {
          "indexed": true,
          "name": "newOwner",
          "type": "address"
        }
      ],
      "name": "OwnershipTransferred",
      "type": "event"
    }
  ],
  "bytecode": "0x6060604052341561000f57600080fd5b336000806101000a81548173ffffffffffffffffffffffffffffffffffffffff021916908373ffffffffffffffffffffffffffffffffffffffff16021790555033600460006101000a81548173ffffffffffffffffffffffffffffffffffffffff021916908373ffffffffffffffffffffffffffffffffffffffff160217905550610af18061009f6000396000f3006060604052600436106100af576000357c0100000000000000000000000000000000000000000000000000000000900463ffffffff16806309b7d54a146100b4578063680197f3146100dd57806369f16b7d1461011f5780637dcf8dea14610161578063871ea452146101bb5780638da5cb5b146101d0578063aa6cdd9714610225578063b66fd5cc1461027a578063bc175cc9146102cf578063db78dabd146102fd578063f2fde38b14610352575b600080fd5b34156100bf57600080fd5b6100c761038b565b6040518082815260200191505060405180910390f35b34156100e857600080fd5b61011d60048080357bffffffffffffffffffffffffffffffffffffffffffffffffffffffff1916906020019091905050610391565b005b341561012a57600080fd5b61015f60048080357bffffffffffffffffffffffffffffffffffffffffffffffffffffffff19169060200190919050506104d1565b005b341561016c57600080fd5b6101a160048080357bffffffffffffffffffffffffffffffffffffffffffffffffffffffff19169060200190919050506105a0565b604051808215151515815260200191505060405180910390f35b34156101c657600080fd5b6101ce6105c0565b005b34156101db57600080fd5b6101e361074a565b604051808273ffffffffffffffffffffffffffffffffffffffff1673ffffffffffffffffffffffffffffffffffffffff16815260200191505060405180910390f35b341561023057600080fd5b61023861076f565b604051808273ffffffffffffffffffffffffffffffffffffffff1673ffffffffffffffffffffffffffffffffffffffff16815260200191505060405180910390f35b341561028557600080fd5b61028d610795565b604051808273ffffffffffffffffffffffffffffffffffffffff1673ffffffffffffffffffffffffffffffffffffffff16815260200191505060405180910390f35b6102fb600480803573ffffffffffffffffffffffffffffffffffffffff169060200190919050506107bb565b005b341561030857600080fd5b6103106108ab565b604051808273ffffffffffffffffffffffffffffffffffffffff1673ffffffffffffffffffffffffffffffffffffffff16815260200191505060405180910390f35b341561035d57600080fd5b610389600480803573ffffffffffffffffffffffffffffffffffffffff169060200190919050506108d1565b005b60025481565b6000809054906101000a900473ffffffffffffffffffffffffffffffffffffffff1673ffffffffffffffffffffffffffffffffffffffff163373ffffffffffffffffffffffffffffffffffffffff161415156103ec57600080fd5b600460009054906101000a900473ffffffffffffffffffffffffffffffffffffffff1673ffffffffffffffffffffffffffffffffffffffff166369f16b7d826040518263ffffffff167c010000000000000000000000000000000000000000000000000000000002815260040180827bffffffffffffffffffffffffffffffffffffffffffffffffffffffff19167bffffffffffffffffffffffffffffffffffffffffffffffffffffffff19168152602001915050600060405180830381600087803b15156104ba57600080fd5b6102c65a03f115156104cb57600080fd5b50505050565b60003390508073ffffffffffffffffffffffffffffffffffffffff16600460009054906101000a900473ffffffffffffffffffffffffffffffffffffffff1673ffffffffffffffffffffffffffffffffffffffff1614151561053257600080fd5b600160056000847bffffffffffffffffffffffffffffffffffffffffffffffffffffffff19167bffffffffffffffffffffffffffffffffffffffffffffffffffffffff1916815260200190815260200160002060006101000a81548160ff0219169083151502179055505050565b60056020528060005260406000206000915054906101000a900460ff1681565b600080339050600360009054906101000a900473ffffffffffffffffffffffffffffffffffffffff1673ffffffffffffffffffffffffffffffffffffffff168173ffffffffffffffffffffffffffffffffffffffff1614151561062257600080fd5b33915081600160006101000a81548173ffffffffffffffffffffffffffffffffffffffff021916908373ffffffffffffffffffffffffffffffffffffffff160217905550436002819055507ff44d868c145e192ab2786eaa3827a434702c53e71182f67bb3915a85fe877f103033604051808373ffffffffffffffffffffffffffffffffffffffff1673ffffffffffffffffffffffffffffffffffffffff1681526020018273ffffffffffffffffffffffffffffffffffffffff1673ffffffffffffffffffffffffffffffffffffffff1681526020019250505060405180910390a16000600360006101000a81548173ffffffffffffffffffffffffffffffffffffffff021916908373ffffffffffffffffffffffffffffffffffffffff1602179055505050565b6000809054906101000a900473ffffffffffffffffffffffffffffffffffffffff1681565b600460009054906101000a900473ffffffffffffffffffffffffffffffffffffffff1681565b600360009054906101000a900473ffffffffffffffffffffffffffffffffffffffff1681565b6000809054906101000a900473ffffffffffffffffffffffffffffffffffffffff1673ffffffffffffffffffffffffffffffffffffffff163373ffffffffffffffffffffffffffffffffffffffff1614151561081657600080fd5b61081f81610a26565b8073ffffffffffffffffffffffffffffffffffffffff1663ae0aba8c346000604051602001526040518263ffffffff167c01000000000000000000000000000000000000000000000000000000000281526004016020604051808303818588803b151561088b57600080fd5b6125ee5a03f1151561089c57600080fd5b50505050604051805190505050565b600160009054906101000a900473ffffffffffffffffffffffffffffffffffffffff1681565b6000809054906101000a900473ffffffffffffffffffffffffffffffffffffffff1673ffffffffffffffffffffffffffffffffffffffff163373ffffffffffffffffffffffffffffffffffffffff1614151561092c57600080fd5b600073ffffffffffffffffffffffffffffffffffffffff168173ffffffffffffffffffffffffffffffffffffffff161415151561096857600080fd5b8073ffffffffffffffffffffffffffffffffffffffff166000809054906101000a900473ffffffffffffffffffffffffffffffffffffffff1673ffffffffffffffffffffffffffffffffffffffff167f8be0079c531659141344cd1fd0a4f28419497f9722a3daafe3b4186f6b6457e060405160405180910390a3806000806101000a81548173ffffffffffffffffffffffffffffffffffffffff021916908373ffffffffffffffffffffffffffffffffffffffff16021790555050565b6000809054906101000a900473ffffffffffffffffffffffffffffffffffffffff1673ffffffffffffffffffffffffffffffffffffffff163373ffffffffffffffffffffffffffffffffffffffff16141515610a8157600080fd5b80600360006101000a81548173ffffffffffffffffffffffffffffffffffffffff021916908373ffffffffffffffffffffffffffffffffffffffff160217905550505600a165627a7a723058208063d830adc8593a2fea83d137c9891500ef16ec486cdddc26d0fb9146803e810029",
  "source": "pragma solidity ^0.4.13;\n\n/*\n  A User is the proxy contract for an ethereum account that wants to use the ParkingAuthority's\n  services. If they sign up through the authority (which is the only way), they will be given\n  exclusive ownership over their account.\n\n  They use this account to pay for parking in the zones they are allowed. If they want\n  to modify their parking priveledges, they must do this through the zone authority. \n*/\n\nimport \"./Ownable.sol\";\nimport \"./ParkingAnchor.sol\";\nimport \"./ParkingAuthority.sol\";\n\ncontract User is Ownable {\n    \n    ParkingAnchor public lastCheckIn;\n    uint public lastCheckInBlock;\n    ParkingAnchor public pendingAnchor;\n    ParkingAuthority public parkingAuthority;\n    mapping(bytes4 => bool) public licensedZones;\n\n    event CheckIn(address user, address anchor);\n\n    modifier senderIsParkingAuthority() {\n        ParkingAuthority authority = ParkingAuthority(msg.sender);\n        require(parkingAuthority == authority);\n        _;\n    }\n\n    modifier senderIsPendingAnchor() {\n        ParkingAnchor anchor = ParkingAnchor(msg.sender);\n        require(anchor == pendingAnchor);\n        _;\n    } \n\n    // A user is created by a ParkingAuthorty.\n    function User() public Ownable {\n      parkingAuthority = ParkingAuthority(msg.sender);\n    }\n\n    // Set the pending anchor to indicate interest in using a ParkingAnchor\n    function setPendingAnchor(ParkingAnchor _anchor) internal onlyOwner() {\n        pendingAnchor = _anchor;\n    }\n\n    // Pay a parking anchor for parking, assuming the user has access to their zone.\n    function payForParking(ParkingAnchor _anchor) public payable onlyOwner() {\n        setPendingAnchor(_anchor);\n        _anchor.acceptPayment.value(msg.value)();\n    }\n\n    function setLastCheckIn() public senderIsPendingAnchor() {\n        ParkingAnchor anchor = ParkingAnchor(msg.sender);\n        lastCheckIn = anchor;\n        lastCheckInBlock = block.number;\n        CheckIn(this, msg.sender);\n        pendingAnchor = ParkingAnchor(0);\n    }\n\n    function addZone(bytes4 _zone) public senderIsParkingAuthority() {\n        licensedZones[_zone] = true;\n    }\n\n    function requestZone(bytes4 _zone) public onlyOwner {\n        parkingAuthority.addZone(_zone);\n    }\n}",
  "sourcePath": "/Users/martyall/code/foam/foam.contracts.deux/contracts/User.sol",
  "compiler": {
    "name": "solc",
    "version": "0.4.18+commit.9cf6e910.Emscripten.clang"
  },
  "schemaVersion": "1.0.1",
  "updatedAt": "2018-03-21T22:09:15.757Z"
}